{
  "_format": "hh-sol-artifact-1",
  "contractName": "ModelRegistry",
  "sourceName": "contracts/ModelRegistry.sol",
  "abi": [
    {
      "inputs": [],
      "stateMutability": "nonpayable",
      "type": "constructor"
    },
    {
      "inputs": [
        {
          "internalType": "address",
          "name": "sender",
          "type": "address"
        },
        {
          "internalType": "uint256",
          "name": "tokenId",
          "type": "uint256"
        },
        {
          "internalType": "address",
          "name": "owner",
          "type": "address"
        }
      ],
      "name": "ERC721IncorrectOwner",
      "type": "error"
    },
    {
      "inputs": [
        {
          "internalType": "address",
          "name": "operator",
          "type": "address"
        },
        {
          "internalType": "uint256",
          "name": "tokenId",
          "type": "uint256"
        }
      ],
      "name": "ERC721InsufficientApproval",
      "type": "error"
    },
    {
      "inputs": [
        {
          "internalType": "address",
          "name": "approver",
          "type": "address"
        }
      ],
      "name": "ERC721InvalidApprover",
      "type": "error"
    },
    {
      "inputs": [
        {
          "internalType": "address",
          "name": "operator",
          "type": "address"
        }
      ],
      "name": "ERC721InvalidOperator",
      "type": "error"
    },
    {
      "inputs": [
        {
          "internalType": "address",
          "name": "owner",
          "type": "address"
        }
      ],
      "name": "ERC721InvalidOwner",
      "type": "error"
    },
    {
      "inputs": [
        {
          "internalType": "address",
          "name": "receiver",
          "type": "address"
        }
      ],
      "name": "ERC721InvalidReceiver",
      "type": "error"
    },
    {
      "inputs": [
        {
          "internalType": "address",
          "name": "sender",
          "type": "address"
        }
      ],
      "name": "ERC721InvalidSender",
      "type": "error"
    },
    {
      "inputs": [
        {
          "internalType": "uint256",
          "name": "tokenId",
          "type": "uint256"
        }
      ],
      "name": "ERC721NonexistentToken",
      "type": "error"
    },
    {
      "inputs": [
        {
          "internalType": "address",
          "name": "owner",
          "type": "address"
        }
      ],
      "name": "OwnableInvalidOwner",
      "type": "error"
    },
    {
      "inputs": [
        {
          "internalType": "address",
          "name": "account",
          "type": "address"
        }
      ],
      "name": "OwnableUnauthorizedAccount",
      "type": "error"
    },
    {
      "anonymous": false,
      "inputs": [
        {
          "indexed": true,
          "internalType": "address",
          "name": "owner",
          "type": "address"
        },
        {
          "indexed": true,
          "internalType": "address",
          "name": "approved",
          "type": "address"
        },
        {
          "indexed": true,
          "internalType": "uint256",
          "name": "tokenId",
          "type": "uint256"
        }
      ],
      "name": "Approval",
      "type": "event"
    },
    {
      "anonymous": false,
      "inputs": [
        {
          "indexed": true,
          "internalType": "address",
          "name": "owner",
          "type": "address"
        },
        {
          "indexed": true,
          "internalType": "address",
          "name": "operator",
          "type": "address"
        },
        {
          "indexed": false,
          "internalType": "bool",
          "name": "approved",
          "type": "bool"
        }
      ],
      "name": "ApprovalForAll",
      "type": "event"
    },
    {
      "anonymous": false,
      "inputs": [
        {
          "indexed": false,
          "internalType": "uint256",
          "name": "_fromTokenId",
          "type": "uint256"
        },
        {
          "indexed": false,
          "internalType": "uint256",
          "name": "_toTokenId",
          "type": "uint256"
        }
      ],
      "name": "BatchMetadataUpdate",
      "type": "event"
    },
    {
      "anonymous": false,
      "inputs": [
        {
          "indexed": false,
          "internalType": "uint256",
          "name": "_tokenId",
          "type": "uint256"
        }
      ],
      "name": "MetadataUpdate",
      "type": "event"
    },
    {
      "anonymous": false,
      "inputs": [
        {
          "indexed": true,
          "internalType": "uint256",
          "name": "tokenId",
          "type": "uint256"
        },
        {
          "indexed": true,
          "internalType": "address",
          "name": "downloader",
          "type": "address"
        }
      ],
      "name": "ModelDownloaded",
      "type": "event"
    },
    {
      "anonymous": false,
      "inputs": [
        {
          "indexed": true,
          "internalType": "uint256",
          "name": "tokenId",
          "type": "uint256"
        },
        {
          "indexed": true,
          "internalType": "address",
          "name": "buyer",
          "type": "address"
        },
        {
          "indexed": false,
          "internalType": "uint256",
          "name": "price",
          "type": "uint256"
        }
      ],
      "name": "ModelPurchased",
      "type": "event"
    },
    {
      "anonymous": false,
      "inputs": [
        {
          "indexed": true,
          "internalType": "uint256",
          "name": "tokenId",
          "type": "uint256"
        },
        {
          "indexed": true,
          "internalType": "address",
          "name": "rater",
          "type": "address"
        },
        {
          "indexed": false,
          "internalType": "uint8",
          "name": "rating",
          "type": "uint8"
        }
      ],
      "name": "ModelRated",
      "type": "event"
    },
    {
      "anonymous": false,
      "inputs": [
        {
          "indexed": true,
          "internalType": "uint256",
          "name": "tokenId",
          "type": "uint256"
        },
        {
          "indexed": true,
          "internalType": "address",
          "name": "owner",
          "type": "address"
        },
        {
          "indexed": false,
          "internalType": "string",
          "name": "name",
          "type": "string"
        },
        {
          "indexed": false,
          "internalType": "string",
          "name": "ipfsHash",
          "type": "string"
        },
        {
          "indexed": false,
          "internalType": "enum ModelRegistry.Category",
          "name": "category",
          "type": "uint8"
        },
        {
          "indexed": false,
          "internalType": "uint256",
          "name": "price",
          "type": "uint256"
        }
      ],
      "name": "ModelRegistered",
      "type": "event"
    },
    {
      "anonymous": false,
      "inputs": [
        {
          "indexed": true,
          "internalType": "uint256",
          "name": "tokenId",
          "type": "uint256"
        },
        {
          "indexed": false,
          "internalType": "enum ModelRegistry.Status",
          "name": "status",
          "type": "uint8"
        }
      ],
      "name": "ModelStatusChanged",
      "type": "event"
    },
    {
      "anonymous": false,
      "inputs": [
        {
          "indexed": true,
          "internalType": "uint256",
          "name": "tokenId",
          "type": "uint256"
        },
        {
          "indexed": false,
          "internalType": "string",
          "name": "metadataHash",
          "type": "string"
        },
        {
          "indexed": false,
          "internalType": "uint256",
          "name": "price",
          "type": "uint256"
        }
      ],
      "name": "ModelUpdated",
      "type": "event"
    },
    {
      "anonymous": false,
      "inputs": [
        {
          "indexed": true,
          "internalType": "address",
          "name": "previousOwner",
          "type": "address"
        },
        {
          "indexed": true,
          "internalType": "address",
          "name": "newOwner",
          "type": "address"
        }
      ],
      "name": "OwnershipTransferred",
      "type": "event"
    },
    {
      "anonymous": false,
      "inputs": [
        {
          "indexed": true,
          "internalType": "address",
          "name": "from",
          "type": "address"
        },
        {
          "indexed": true,
          "internalType": "address",
          "name": "to",
          "type": "address"
        },
        {
          "indexed": true,
          "internalType": "uint256",
          "name": "tokenId",
          "type": "uint256"
        }
      ],
      "name": "Transfer",
      "type": "event"
    },
    {
      "inputs": [
        {
          "internalType": "address",
          "name": "to",
          "type": "address"
        },
        {
          "internalType": "uint256",
          "name": "tokenId",
          "type": "uint256"
        }
      ],
      "name": "approve",
      "outputs": [],
      "stateMutability": "nonpayable",
      "type": "function"
    },
    {
      "inputs": [
        {
          "internalType": "address",
          "name": "owner",
          "type": "address"
        }
      ],
      "name": "balanceOf",
      "outputs": [
        {
          "internalType": "uint256",
          "name": "",
          "type": "uint256"
        }
      ],
      "stateMutability": "view",
      "type": "function"
    },
    {
      "inputs": [
        {
          "internalType": "uint256",
          "name": "tokenId",
          "type": "uint256"
        }
      ],
      "name": "getApproved",
      "outputs": [
        {
          "internalType": "address",
          "name": "",
          "type": "address"
        }
      ],
      "stateMutability": "view",
      "type": "function"
    },
    {
      "inputs": [
        {
          "internalType": "uint256",
          "name": "tokenId",
          "type": "uint256"
        }
      ],
      "name": "getAverageRating",
      "outputs": [
        {
          "internalType": "uint256",
          "name": "",
          "type": "uint256"
        }
      ],
      "stateMutability": "view",
      "type": "function"
    },
    {
      "inputs": [
        {
          "internalType": "uint256",
          "name": "tokenId",
          "type": "uint256"
        }
      ],
      "name": "getModel",
      "outputs": [
        {
          "components": [
            {
              "internalType": "uint256",
              "name": "id",
              "type": "uint256"
            },
            {
              "internalType": "address",
              "name": "owner",
              "type": "address"
            },
            {
              "internalType": "string",
              "name": "name",
              "type": "string"
            },
            {
              "internalType": "string",
              "name": "ipfsHash",
              "type": "string"
            },
            {
              "internalType": "string",
              "name": "metadataHash",
              "type": "string"
            },
            {
              "internalType": "enum ModelRegistry.Category",
              "name": "category",
              "type": "uint8"
            },
            {
              "internalType": "enum ModelRegistry.Status",
              "name": "status",
              "type": "uint8"
            },
            {
              "internalType": "uint256",
              "name": "price",
              "type": "uint256"
            },
            {
              "internalType": "uint256",
              "name": "createdAt",
              "type": "uint256"
            },
            {
              "internalType": "uint256",
              "name": "updatedAt",
              "type": "uint256"
            },
            {
              "internalType": "uint256",
              "name": "totalDownloads",
              "type": "uint256"
            },
            {
              "internalType": "uint256",
              "name": "totalRatings",
              "type": "uint256"
            },
            {
              "internalType": "uint256",
              "name": "ratingSum",
              "type": "uint256"
            }
          ],
          "internalType": "struct ModelRegistry.Model",
          "name": "",
          "type": "tuple"
        }
      ],
      "stateMutability": "view",
      "type": "function"
    },
    {
      "inputs": [
        {
          "internalType": "address",
          "name": "owner",
          "type": "address"
        }
      ],
      "name": "getOwnerModels",
      "outputs": [
        {
          "internalType": "uint256[]",
          "name": "",
          "type": "uint256[]"
        }
      ],
      "stateMutability": "view",
      "type": "function"
    },
    {
      "inputs": [],
      "name": "getTotalModels",
      "outputs": [
        {
          "internalType": "uint256",
          "name": "",
          "type": "uint256"
        }
      ],
      "stateMutability": "view",
      "type": "function"
    },
    {
      "inputs": [
        {
          "internalType": "string",
          "name": "",
          "type": "string"
        }
      ],
      "name": "ipfsHashUsed",
      "outputs": [
        {
          "internalType": "bool",
          "name": "",
          "type": "bool"
        }
      ],
      "stateMutability": "view",
      "type": "function"
    },
    {
      "inputs": [
        {
          "internalType": "address",
          "name": "owner",
          "type": "address"
        },
        {
          "internalType": "address",
          "name": "operator",
          "type": "address"
        }
      ],
      "name": "isApprovedForAll",
      "outputs": [
        {
          "internalType": "bool",
          "name": "",
          "type": "bool"
        }
      ],
      "stateMutability": "view",
      "type": "function"
    },
    {
      "inputs": [
        {
          "internalType": "uint256",
          "name": "",
          "type": "uint256"
        }
      ],
      "name": "models",
      "outputs": [
        {
          "internalType": "uint256",
          "name": "id",
          "type": "uint256"
        },
        {
          "internalType": "address",
          "name": "owner",
          "type": "address"
        },
        {
          "internalType": "string",
          "name": "name",
          "type": "string"
        },
        {
          "internalType": "string",
          "name": "ipfsHash",
          "type": "string"
        },
        {
          "internalType": "string",
          "name": "metadataHash",
          "type": "string"
        },
        {
          "internalType": "enum ModelRegistry.Category",
          "name": "category",
          "type": "uint8"
        },
        {
          "internalType": "enum ModelRegistry.Status",
          "name": "status",
          "type": "uint8"
        },
        {
          "internalType": "uint256",
          "name": "price",
          "type": "uint256"
        },
        {
          "internalType": "uint256",
          "name": "createdAt",
          "type": "uint256"
        },
        {
          "internalType": "uint256",
          "name": "updatedAt",
          "type": "uint256"
        },
        {
          "internalType": "uint256",
          "name": "totalDownloads",
          "type": "uint256"
        },
        {
          "internalType": "uint256",
          "name": "totalRatings",
          "type": "uint256"
        },
        {
          "internalType": "uint256",
          "name": "ratingSum",
          "type": "uint256"
        }
      ],
      "stateMutability": "view",
      "type": "function"
    },
    {
      "inputs": [],
      "name": "name",
      "outputs": [
        {
          "internalType": "string",
          "name": "",
          "type": "string"
        }
      ],
      "stateMutability": "view",
      "type": "function"
    },
    {
      "inputs": [],
      "name": "owner",
      "outputs": [
        {
          "internalType": "address",
          "name": "",
          "type": "address"
        }
      ],
      "stateMutability": "view",
      "type": "function"
    },
    {
      "inputs": [
        {
          "internalType": "address",
          "name": "",
          "type": "address"
        },
        {
          "internalType": "uint256",
          "name": "",
          "type": "uint256"
        }
      ],
      "name": "ownerModels",
      "outputs": [
        {
          "internalType": "uint256",
          "name": "",
          "type": "uint256"
        }
      ],
      "stateMutability": "view",
      "type": "function"
    },
    {
      "inputs": [
        {
          "internalType": "uint256",
          "name": "tokenId",
          "type": "uint256"
        }
      ],
      "name": "ownerOf",
      "outputs": [
        {
          "internalType": "address",
          "name": "",
          "type": "address"
        }
      ],
      "stateMutability": "view",
      "type": "function"
    },
    {
      "inputs": [
        {
          "internalType": "uint256",
          "name": "tokenId",
          "type": "uint256"
        },
        {
          "internalType": "uint8",
          "name": "rating",
          "type": "uint8"
        }
      ],
      "name": "rateModel",
      "outputs": [],
      "stateMutability": "nonpayable",
      "type": "function"
    },
    {
      "inputs": [
        {
          "internalType": "uint256",
          "name": "tokenId",
          "type": "uint256"
        }
      ],
      "name": "recordDownload",
      "outputs": [],
      "stateMutability": "nonpayable",
      "type": "function"
    },
    {
      "inputs": [
        {
          "internalType": "string",
          "name": "name",
          "type": "string"
        },
        {
          "internalType": "string",
          "name": "ipfsHash",
          "type": "string"
        },
        {
          "internalType": "string",
          "name": "metadataHash",
          "type": "string"
        },
        {
          "internalType": "enum ModelRegistry.Category",
          "name": "category",
          "type": "uint8"
        },
        {
          "internalType": "uint256",
          "name": "price",
          "type": "uint256"
        }
      ],
      "name": "registerModel",
      "outputs": [
        {
          "internalType": "uint256",
          "name": "",
          "type": "uint256"
        }
      ],
      "stateMutability": "nonpayable",
      "type": "function"
    },
    {
      "inputs": [],
      "name": "renounceOwnership",
      "outputs": [],
      "stateMutability": "nonpayable",
      "type": "function"
    },
    {
      "inputs": [
        {
          "internalType": "address",
          "name": "from",
          "type": "address"
        },
        {
          "internalType": "address",
          "name": "to",
          "type": "address"
        },
        {
          "internalType": "uint256",
          "name": "tokenId",
          "type": "uint256"
        }
      ],
      "name": "safeTransferFrom",
      "outputs": [],
      "stateMutability": "nonpayable",
      "type": "function"
    },
    {
      "inputs": [
        {
          "internalType": "address",
          "name": "from",
          "type": "address"
        },
        {
          "internalType": "address",
          "name": "to",
          "type": "address"
        },
        {
          "internalType": "uint256",
          "name": "tokenId",
          "type": "uint256"
        },
        {
          "internalType": "bytes",
          "name": "data",
          "type": "bytes"
        }
      ],
      "name": "safeTransferFrom",
      "outputs": [],
      "stateMutability": "nonpayable",
      "type": "function"
    },
    {
      "inputs": [
        {
          "internalType": "address",
          "name": "operator",
          "type": "address"
        },
        {
          "internalType": "bool",
          "name": "approved",
          "type": "bool"
        }
      ],
      "name": "setApprovalForAll",
      "outputs": [],
      "stateMutability": "nonpayable",
      "type": "function"
    },
    {
      "inputs": [
        {
          "internalType": "uint256",
          "name": "tokenId",
          "type": "uint256"
        },
        {
          "internalType": "enum ModelRegistry.Status",
          "name": "status",
          "type": "uint8"
        }
      ],
      "name": "setModelStatus",
      "outputs": [],
      "stateMutability": "nonpayable",
      "type": "function"
    },
    {
      "inputs": [
        {
          "internalType": "bytes4",
          "name": "interfaceId",
          "type": "bytes4"
        }
      ],
      "name": "supportsInterface",
      "outputs": [
        {
          "internalType": "bool",
          "name": "",
          "type": "bool"
        }
      ],
      "stateMutability": "view",
      "type": "function"
    },
    {
      "inputs": [],
      "name": "symbol",
      "outputs": [
        {
          "internalType": "string",
          "name": "",
          "type": "string"
        }
      ],
      "stateMutability": "view",
      "type": "function"
    },
    {
      "inputs": [
        {
          "internalType": "uint256",
          "name": "tokenId",
          "type": "uint256"
        }
      ],
      "name": "tokenURI",
      "outputs": [
        {
          "internalType": "string",
          "name": "",
          "type": "string"
        }
      ],
      "stateMutability": "view",
      "type": "function"
    },
    {
      "inputs": [
        {
          "internalType": "address",
          "name": "from",
          "type": "address"
        },
        {
          "internalType": "address",
          "name": "to",
          "type": "address"
        },
        {
          "internalType": "uint256",
          "name": "tokenId",
          "type": "uint256"
        }
      ],
      "name": "transferFrom",
      "outputs": [],
      "stateMutability": "nonpayable",
      "type": "function"
    },
    {
      "inputs": [
        {
          "internalType": "address",
          "name": "newOwner",
          "type": "address"
        }
      ],
      "name": "transferOwnership",
      "outputs": [],
      "stateMutability": "nonpayable",
      "type": "function"
    },
    {
      "inputs": [
        {
          "internalType": "uint256",
          "name": "tokenId",
          "type": "uint256"
        },
        {
          "internalType": "string",
          "name": "metadataHash",
          "type": "string"
        },
        {
          "internalType": "uint256",
          "name": "price",
          "type": "uint256"
        }
      ],
      "name": "updateModel",
      "outputs": [],
      "stateMutability": "nonpayable",
      "type": "function"
    }
  ],
  "bytecode": "0x60806040523480156200001157600080fd5b50336040518060400160405280601381526020017f4d6f64656c436861696e204149204d6f64656c00000000000000000000000000815250604051806040016040528060048152602001634d43414960e01b8152508160009081620000779190620001c1565b506001620000868282620001c1565b5050506001600160a01b038116620000b857604051631e4fbdf760e01b81526000600482015260240160405180910390fd5b620000c381620000ca565b506200028d565b600780546001600160a01b038381166001600160a01b0319831681179093556040519116919082907f8be0079c531659141344cd1fd0a4f28419497f9722a3daafe3b4186f6b6457e090600090a35050565b634e487b7160e01b600052604160045260246000fd5b600181811c908216806200014757607f821691505b6020821081036200016857634e487b7160e01b600052602260045260246000fd5b50919050565b601f821115620001bc57600081815260208120601f850160051c81016020861015620001975750805b601f850160051c820191505b81811015620001b857828155600101620001a3565b5050505b505050565b81516001600160401b03811115620001dd57620001dd6200011c565b620001f581620001ee845462000132565b846200016e565b602080601f8311600181146200022d5760008415620002145750858301515b600019600386901b1c1916600185901b178555620001b8565b600085815260208120601f198616915b828110156200025e578886015182559484019460019091019084016200023d565b50858210156200027d5787850151600019600388901b60f8161c191681555b5050505050600190811b01905550565b6129e8806200029d6000396000f3fe608060405234801561001057600080fd5b50600436106101c45760003560e01c80636d361694116100f9578063b88d4fde11610097578063e843d86511610071578063e843d86514610406578063e985e9c514610419578063f2fde38b1461042c578063f508dde61461043f57600080fd5b8063b88d4fde146103b2578063c87b56dd146103c5578063e77365f7146103d857600080fd5b80637ed2870b116100d35780637ed2870b146103735780638da5cb5b1461038657806395d89b4114610397578063a22cb4651461039f57600080fd5b80636d3616941461033857806370a0823114610358578063715018a61461036b57600080fd5b806323b872dd1161016657806342842e0e1161014057806342842e0e146102d35780634b51c301146102e65780636352211e146102f95780636a030ca91461030c57600080fd5b806323b872dd1461029a5780632a2f12c7146102ad5780633104ece7146102c057600080fd5b8063095ea7b3116101a2578063095ea7b314610231578063148f69821461024657806317b7e03e146102665780631c788a9a1461028757600080fd5b806301ffc9a7146101c957806306fdde03146101f1578063081812fc14610206575b600080fd5b6101dc6101d736600461203d565b610447565b60405190151581526020015b60405180910390f35b6101f9610458565b6040516101e891906120aa565b6102196102143660046120bd565b6104ea565b6040516001600160a01b0390911681526020016101e8565b61024461023f3660046120f2565b610513565b005b61025961025436600461211c565b610522565b6040516101e89190612137565b6102796102743660046120bd565b61058e565b6040519081526020016101e8565b61024461029536600461217b565b610865565b6102446102a83660046121b1565b61097d565b6102446102bb3660046121ed565b610a08565b6102446102ce3660046122c2565b610acf565b6102446102e13660046121b1565b610bd2565b6102446102f43660046120bd565b610bf2565b6102196103073660046120bd565b610c7b565b61031f61031a3660046120bd565b610c86565b6040516101e89d9c9b9a9998979695949392919061234c565b61034b6103463660046120bd565b610e90565b6040516101e891906123f7565b61027961036636600461211c565b61116b565b6102446111b3565b6102796103813660046120f2565b6111c7565b6007546001600160a01b0316610219565b6101f96111f8565b6102446103ad3660046124f4565b611207565b6102446103c0366004612525565b611212565b6101f96103d33660046120bd565b61122a565b6101dc6103e63660046125a1565b8051602081830181018051600b8252928201919093012091525460ff1681565b6102796104143660046125d6565b611235565b6101dc61042736600461267d565b611598565b61024461043a36600461211c565b6115c6565b600854610279565b600061045282611604565b92915050565b606060008054610467906126b0565b80601f0160208091040260200160405190810160405280929190818152602001828054610493906126b0565b80156104e05780601f106104b5576101008083540402835291602001916104e0565b820191906000526020600020905b8154815290600101906020018083116104c357829003601f168201915b5050505050905090565b60006104f582611629565b506000828152600460205260409020546001600160a01b0316610452565b61051e828233611662565b5050565b6001600160a01b0381166000908152600a602090815260409182902080548351818402810184019094528084526060939283018282801561058257602002820191906000526020600020905b81548152602001906001019080831161056e575b50505050509050919050565b600081815260096020908152604080832081516101a0810183528154815260018201546001600160a01b031693810193909352600281018054859493840191906105d7906126b0565b80601f0160208091040260200160405190810160405280929190818152602001828054610603906126b0565b80156106505780601f1061062557610100808354040283529160200191610650565b820191906000526020600020905b81548152906001019060200180831161063357829003601f168201915b50505050508152602001600382018054610669906126b0565b80601f0160208091040260200160405190810160405280929190818152602001828054610695906126b0565b80156106e25780601f106106b7576101008083540402835291602001916106e2565b820191906000526020600020905b8154815290600101906020018083116106c557829003601f168201915b505050505081526020016004820180546106fb906126b0565b80601f0160208091040260200160405190810160405280929190818152602001828054610727906126b0565b80156107745780601f1061074957610100808354040283529160200191610774565b820191906000526020600020905b81548152906001019060200180831161075757829003601f168201915b505050918352505060058281015460209092019160ff169081111561079b5761079b612312565b60058111156107ac576107ac612312565b81526020016005820160019054906101000a900460ff1660038111156107d4576107d4612312565b60038111156107e5576107e5612312565b815260200160068201548152602001600782015481526020016008820154815260200160098201548152602001600a8201548152602001600b82015481525050905080610160015160000361083d5750600092915050565b610160810151610180820151610854906064612700565b61085e9190612717565b9392505050565b60008281526002602052604090205482906001600160a01b03166108a45760405162461bcd60e51b815260040161089b90612739565b60405180910390fd5b60018260ff16101580156108bc575060058260ff1611155b6108fd5760405162461bcd60e51b8152602060048201526012602482015271526174696e67206d75737420626520312d3560701b604482015260640161089b565b6000838152600960205260408120600a81018054919261091c83612767565b91905055508260ff1681600b0160008282546109389190612780565b909155505060405160ff84168152339085907ffaf9f3e1fdcee02b60a86f88d3d00c69853925ce50a737a2f544c5d0cb132da59060200160405180910390a350505050565b6001600160a01b0382166109a757604051633250574960e11b81526000600482015260240161089b565b60006109b483833361166f565b9050836001600160a01b0316816001600160a01b031614610a02576040516364283d7b60e01b81526001600160a01b038086166004830152602482018490528216604482015260640161089b565b50505050565b60008281526002602052604090205482906001600160a01b0316610a3e5760405162461bcd60e51b815260040161089b90612739565b610a46611768565b6000838152600960205260409020600501805483919061ff001916610100836003811115610a7657610a76612312565b021790555060008381526009602052604090819020426008909101555183907f2409062b6e5ba953d2852872420e62c234c44fcad03d023540347d74ec12cb7f90610ac2908590612793565b60405180910390a2505050565b60008381526002602052604090205483906001600160a01b0316610b055760405162461bcd60e51b815260040161089b90612739565b8333610b1082610c7b565b6001600160a01b031614610b5c5760405162461bcd60e51b81526020600482015260136024820152722737ba103a34329036b7b232b61037bbb732b960691b604482015260640161089b565b600085815260096020526040902060048101610b7886826127e7565b5060068101849055426008820155610b908686611795565b857f455f5080ea871516dbe991ffb2aac99192d5576c203a72f70d9d058738cb19158686604051610bc29291906128a7565b60405180910390a2505050505050565b610bed83838360405180602001604052806000815250611212565b505050565b60008181526002602052604090205481906001600160a01b0316610c285760405162461bcd60e51b815260040161089b90612739565b6000828152600960208190526040822001805491610c4583612767565b9091555050604051339083907fce734f1ea4957d389243c7d43295859c02fd6609f21a15a84384f13d3172310190600090a35050565b600061045282611629565b60096020526000908152604090208054600182015460028301805492936001600160a01b0390921692610cb8906126b0565b80601f0160208091040260200160405190810160405280929190818152602001828054610ce4906126b0565b8015610d315780601f10610d0657610100808354040283529160200191610d31565b820191906000526020600020905b815481529060010190602001808311610d1457829003601f168201915b505050505090806003018054610d46906126b0565b80601f0160208091040260200160405190810160405280929190818152602001828054610d72906126b0565b8015610dbf5780601f10610d9457610100808354040283529160200191610dbf565b820191906000526020600020905b815481529060010190602001808311610da257829003601f168201915b505050505090806004018054610dd4906126b0565b80601f0160208091040260200160405190810160405280929190818152602001828054610e00906126b0565b8015610e4d5780601f10610e2257610100808354040283529160200191610e4d565b820191906000526020600020905b815481529060010190602001808311610e3057829003601f168201915b50505060058401546006850154600786015460088701546009880154600a890154600b90990154979860ff8087169961010090970416975093955091939092908d565b610e98611fa5565b6000828152600260205260409020546001600160a01b0316610ecc5760405162461bcd60e51b815260040161089b90612739565b60008281526009602090815260409182902082516101a0810184528154815260018201546001600160a01b0316928101929092526002810180549293919291840191610f17906126b0565b80601f0160208091040260200160405190810160405280929190818152602001828054610f43906126b0565b8015610f905780601f10610f6557610100808354040283529160200191610f90565b820191906000526020600020905b815481529060010190602001808311610f7357829003601f168201915b50505050508152602001600382018054610fa9906126b0565b80601f0160208091040260200160405190810160405280929190818152602001828054610fd5906126b0565b80156110225780601f10610ff757610100808354040283529160200191611022565b820191906000526020600020905b81548152906001019060200180831161100557829003601f168201915b5050505050815260200160048201805461103b906126b0565b80601f0160208091040260200160405190810160405280929190818152602001828054611067906126b0565b80156110b45780601f10611089576101008083540402835291602001916110b4565b820191906000526020600020905b81548152906001019060200180831161109757829003601f168201915b505050918352505060058281015460209092019160ff16908111156110db576110db612312565b60058111156110ec576110ec612312565b81526020016005820160019054906101000a900460ff16600381111561111457611114612312565b600381111561112557611125612312565b815260068201546020820152600782015460408201526008820154606082015260098201546080820152600a82015460a0820152600b9091015460c09091015292915050565b60006001600160a01b038216611197576040516322718ad960e21b81526000600482015260240161089b565b506001600160a01b031660009081526003602052604090205490565b6111bb611768565b6111c560006117e5565b565b600a60205281600052604060002081815481106111e357600080fd5b90600052602060002001600091509150505481565b606060018054610467906126b0565b61051e338383611837565b61121d84848461097d565b610a0233858585856118d6565b606061045282611a01565b60008086511161127e5760405162461bcd60e51b81526020600482015260146024820152734e616d652063616e6e6f7420626520656d70747960601b604482015260640161089b565b60008551116112cf5760405162461bcd60e51b815260206004820152601960248201527f4950465320686173682063616e6e6f7420626520656d70747900000000000000604482015260640161089b565b600b856040516112df91906128c9565b9081526040519081900360200190205460ff161561133f5760405162461bcd60e51b815260206004820152601860248201527f4d6f64656c20616c726561647920726567697374657265640000000000000000604482015260640161089b565b60088054908190600061135183612767565b91905055506113603382611b12565b61136a8186611795565b604051806101a00160405280828152602001336001600160a01b031681526020018881526020018781526020018681526020018560058111156113af576113af612312565b8152602001600081526020808201869052426040808401829052606084019190915260006080840181905260a0840181905260c0909301839052848352600982529182902083518155908301516001820180546001600160a01b0319166001600160a01b0390921691909117905590820151600282019061143090826127e7565b506060820151600382019061144590826127e7565b506080820151600482019061145a90826127e7565b5060a08201518160050160006101000a81548160ff0219169083600581111561148557611485612312565b021790555060c082015160058201805461ff0019166101008360038111156114af576114af612312565b021790555060e08201516006820155610100820151600782015561012082015160088201556101408201516009820155610160820151600a8083019190915561018090920151600b918201553360009081526020928352604080822080546001818101835591845294909220909301849055915161152e9089906128c9565b908152604051908190036020018120805492151560ff1990931692909217909155339082907fe0cd2aa79805836c45caf958d4081560706c5f8ce3ffe62c2a236e911e7b4d9990611586908b908b908a908a906128e5565b60405180910390a39695505050505050565b6001600160a01b03918216600090815260056020908152604080832093909416825291909152205460ff1690565b6115ce611768565b6001600160a01b0381166115f857604051631e4fbdf760e01b81526000600482015260240161089b565b611601816117e5565b50565b60006001600160e01b03198216632483248360e11b1480610452575061045282611b2c565b6000818152600260205260408120546001600160a01b03168061045257604051637e27328960e01b81526004810184905260240161089b565b610bed8383836001611b7c565b6000828152600260205260408120546001600160a01b039081169083161561169c5761169c818486611c82565b6001600160a01b038116156116da576116b9600085600080611b7c565b6001600160a01b038116600090815260036020526040902080546000190190555b6001600160a01b03851615611709576001600160a01b0385166000908152600360205260409020805460010190555b60008481526002602052604080822080546001600160a01b0319166001600160a01b0389811691821790925591518793918516917fddf252ad1be2c89b69c2b068fc378daa952ba7f163c4a11628f55a4df523b3ef91a4949350505050565b6007546001600160a01b031633146111c55760405163118cdaa760e01b815233600482015260240161089b565b60008281526006602052604090206117ad82826127e7565b506040518281527ff8e1a15aba9398e019f0b49df1a4fde98ee17ae345cb5f6b5e2c27f5033e8ce79060200160405180910390a15050565b600780546001600160a01b038381166001600160a01b0319831681179093556040519116919082907f8be0079c531659141344cd1fd0a4f28419497f9722a3daafe3b4186f6b6457e090600090a35050565b6001600160a01b03821661186957604051630b61174360e31b81526001600160a01b038316600482015260240161089b565b6001600160a01b03838116600081815260056020908152604080832094871680845294825291829020805460ff191686151590811790915591519182527f17307eab39ab6107e8899845ad3d59bd9653f200f220920489ca2b5937696c31910160405180910390a3505050565b6001600160a01b0383163b156119fa57604051630a85bd0160e11b81526001600160a01b0384169063150b7a0290611918908890889087908790600401612929565b6020604051808303816000875af1925050508015611953575060408051601f3d908101601f1916820190925261195091810190612966565b60015b6119bc573d808015611981576040519150601f19603f3d011682016040523d82523d6000602084013e611986565b606091505b5080516000036119b457604051633250574960e11b81526001600160a01b038516600482015260240161089b565b805160208201fd5b6001600160e01b03198116630a85bd0160e11b146119f857604051633250574960e11b81526001600160a01b038516600482015260240161089b565b505b5050505050565b6060611a0c82611629565b5060008281526006602052604081208054611a26906126b0565b80601f0160208091040260200160405190810160405280929190818152602001828054611a52906126b0565b8015611a9f5780601f10611a7457610100808354040283529160200191611a9f565b820191906000526020600020905b815481529060010190602001808311611a8257829003601f168201915b505050505090506000611abd60408051602081019091526000815290565b90508051600003611acf575092915050565b815115611b01578082604051602001611ae9929190612983565b60405160208183030381529060405292505050919050565b611b0a84611ce6565b949350505050565b61051e828260405180602001604052806000815250611d5a565b60006001600160e01b031982166380ac58cd60e01b1480611b5d57506001600160e01b03198216635b5e139f60e01b145b8061045257506301ffc9a760e01b6001600160e01b0319831614610452565b8080611b9057506001600160a01b03821615155b15611c52576000611ba084611629565b90506001600160a01b03831615801590611bcc5750826001600160a01b0316816001600160a01b031614155b8015611bdf5750611bdd8184611598565b155b15611c085760405163a9fbf51f60e01b81526001600160a01b038416600482015260240161089b565b8115611c505783856001600160a01b0316826001600160a01b03167f8c5be1e5ebec7d5bd14f71427d1e84f3dd0314c0f7b2291e5b200ac8c7c3b92560405160405180910390a45b505b5050600090815260046020526040902080546001600160a01b0319166001600160a01b0392909216919091179055565b611c8d838383611d72565b610bed576001600160a01b038316611cbb57604051637e27328960e01b81526004810182905260240161089b565b60405163177e802f60e01b81526001600160a01b03831660048201526024810182905260440161089b565b6060611cf182611629565b506000611d0960408051602081019091526000815290565b90506000815111611d29576040518060200160405280600081525061085e565b80611d3384611dd5565b604051602001611d44929190612983565b6040516020818303038152906040529392505050565b611d648383611e68565b610bed3360008585856118d6565b60006001600160a01b03831615801590611b0a5750826001600160a01b0316846001600160a01b03161480611dac5750611dac8484611598565b80611b0a5750506000908152600460205260409020546001600160a01b03908116911614919050565b60606000611de283611ecd565b600101905060008167ffffffffffffffff811115611e0257611e02612216565b6040519080825280601f01601f191660200182016040528015611e2c576020820181803683370190505b5090508181016020015b600019016f181899199a1a9b1b9c1cb0b131b232b360811b600a86061a8153600a8504945084611e3657509392505050565b6001600160a01b038216611e9257604051633250574960e11b81526000600482015260240161089b565b6000611ea08383600061166f565b90506001600160a01b03811615610bed576040516339e3563760e11b81526000600482015260240161089b565b60008072184f03e93ff9f4daa797ed6e38ed64bf6a1f0160401b8310611f0c5772184f03e93ff9f4daa797ed6e38ed64bf6a1f0160401b830492506040015b6d04ee2d6d415b85acef81000000008310611f38576d04ee2d6d415b85acef8100000000830492506020015b662386f26fc100008310611f5657662386f26fc10000830492506010015b6305f5e1008310611f6e576305f5e100830492506008015b6127108310611f8257612710830492506004015b60648310611f94576064830492506002015b600a83106104525760010192915050565b604051806101a001604052806000815260200160006001600160a01b0316815260200160608152602001606081526020016060815260200160006005811115611ff057611ff0612312565b8152602001600081526020016000815260200160008152602001600081526020016000815260200160008152602001600081525090565b6001600160e01b03198116811461160157600080fd5b60006020828403121561204f57600080fd5b813561085e81612027565b60005b8381101561207557818101518382015260200161205d565b50506000910152565b6000815180845261209681602086016020860161205a565b601f01601f19169290920160200192915050565b60208152600061085e602083018461207e565b6000602082840312156120cf57600080fd5b5035919050565b80356001600160a01b03811681146120ed57600080fd5b919050565b6000806040838503121561210557600080fd5b61210e836120d6565b946020939093013593505050565b60006020828403121561212e57600080fd5b61085e826120d6565b6020808252825182820181905260009190848201906040850190845b8181101561216f57835183529284019291840191600101612153565b50909695505050505050565b6000806040838503121561218e57600080fd5b82359150602083013560ff811681146121a657600080fd5b809150509250929050565b6000806000606084860312156121c657600080fd5b6121cf846120d6565b92506121dd602085016120d6565b9150604084013590509250925092565b6000806040838503121561220057600080fd5b823591506020830135600481106121a657600080fd5b634e487b7160e01b600052604160045260246000fd5b600067ffffffffffffffff8084111561224757612247612216565b604051601f8501601f19908116603f0116810190828211818310171561226f5761226f612216565b8160405280935085815286868601111561228857600080fd5b858560208301376000602087830101525050509392505050565b600082601f8301126122b357600080fd5b61085e8383356020850161222c565b6000806000606084860312156122d757600080fd5b83359250602084013567ffffffffffffffff8111156122f557600080fd5b612301868287016122a2565b925050604084013590509250925092565b634e487b7160e01b600052602160045260246000fd5b6006811061233857612338612312565b9052565b6004811061233857612338612312565b8d81526001600160a01b038d1660208201526101a0604082018190526000906123778382018f61207e565b9050828103606084015261238b818e61207e565b9050828103608084015261239f818d61207e565b9150506123af60a083018b612328565b6123bc60c083018a61233c565b8760e083015286610100830152856101208301528461014083015283610160830152826101808301529e9d5050505050505050505050505050565b60208152815160208201526000602083015161241e60408401826001600160a01b03169052565b5060408301516101a080606085015261243b6101c085018361207e565b91506060850151601f1980868503016080870152612459848361207e565b935060808701519150808685030160a087015250612477838261207e565b92505060a085015161248c60c0860182612328565b5060c085015161249f60e086018261233c565b5060e08501516101008581019190915285015161012080860191909152850151610140808601919091528501516101608086019190915285015161018080860191909152909401519390920192909252919050565b6000806040838503121561250757600080fd5b612510836120d6565b9150602083013580151581146121a657600080fd5b6000806000806080858703121561253b57600080fd5b612544856120d6565b9350612552602086016120d6565b925060408501359150606085013567ffffffffffffffff81111561257557600080fd5b8501601f8101871361258657600080fd5b6125958782356020840161222c565b91505092959194509250565b6000602082840312156125b357600080fd5b813567ffffffffffffffff8111156125ca57600080fd5b611b0a848285016122a2565b600080600080600060a086880312156125ee57600080fd5b853567ffffffffffffffff8082111561260657600080fd5b61261289838a016122a2565b9650602088013591508082111561262857600080fd5b61263489838a016122a2565b9550604088013591508082111561264a57600080fd5b50612657888289016122a2565b93505060608601356006811061266c57600080fd5b949793965091946080013592915050565b6000806040838503121561269057600080fd5b612699836120d6565b91506126a7602084016120d6565b90509250929050565b600181811c908216806126c457607f821691505b6020821081036126e457634e487b7160e01b600052602260045260246000fd5b50919050565b634e487b7160e01b600052601160045260246000fd5b8082028115828204841417610452576104526126ea565b60008261273457634e487b7160e01b600052601260045260246000fd5b500490565b602080825260149082015273135bd9195b08191bd95cc81b9bdd08195e1a5cdd60621b604082015260600190565b600060018201612779576127796126ea565b5060010190565b80820180821115610452576104526126ea565b60208101610452828461233c565b601f821115610bed57600081815260208120601f850160051c810160208610156127c85750805b601f850160051c820191505b818110156119f8578281556001016127d4565b815167ffffffffffffffff81111561280157612801612216565b6128158161280f84546126b0565b846127a1565b602080601f83116001811461284a57600084156128325750858301515b600019600386901b1c1916600185901b1785556119f8565b600085815260208120601f198616915b828110156128795788860151825594840194600190910190840161285a565b50858210156128975787850151600019600388901b60f8161c191681555b5050505050600190811b01905550565b6040815260006128ba604083018561207e565b90508260208301529392505050565b600082516128db81846020870161205a565b9190910192915050565b6080815260006128f8608083018761207e565b828103602084015261290a818761207e565b91505061291a6040830185612328565b82606083015295945050505050565b6001600160a01b038581168252841660208201526040810183905260806060820181905260009061295c9083018461207e565b9695505050505050565b60006020828403121561297857600080fd5b815161085e81612027565b6000835161299581846020880161205a565b8351908301906129a981836020880161205a565b0194935050505056fea2646970667358221220f1ede36fd7eddb9b90a76129d2781c4e2faa584b8c20155582d804d84831648164736f6c63430008140033",
  "linkReferences": {},
  "deployedLinkReferences": {}
}