{
  "_format": "hh-sol-artifact-1",
  "contractName": "Governance",
  "sourceName": "contracts/Governance.sol",
  "abi": [
    {
      "inputs": [],
      "stateMutability": "nonpayable",
      "type": "constructor"
    },
    {
      "inputs": [
        {
          "internalType": "address",
          "name": "owner",
          "type": "address"
        }
      ],
      "name": "OwnableInvalidOwner",
      "type": "error"
    },
    {
      "inputs": [
        {
          "internalType": "address",
          "name": "account",
          "type": "address"
        }
      ],
      "name": "OwnableUnauthorizedAccount",
      "type": "error"
    },
    {
      "inputs": [],
      "name": "ReentrancyGuardReentrantCall",
      "type": "error"
    },
    {
      "anonymous": false,
      "inputs": [
        {
          "indexed": true,
          "internalType": "address",
          "name": "delegator",
          "type": "address"
        },
        {
          "indexed": true,
          "internalType": "address",
          "name": "toDelegate",
          "type": "address"
        }
      ],
      "name": "DelegateChanged",
      "type": "event"
    },
    {
      "anonymous": false,
      "inputs": [
        {
          "indexed": true,
          "internalType": "address",
          "name": "user",
          "type": "address"
        },
        {
          "indexed": false,
          "internalType": "uint256",
          "name": "amount",
          "type": "uint256"
        }
      ],
      "name": "InitialTokensClaimed",
      "type": "event"
    },
    {
      "anonymous": false,
      "inputs": [
        {
          "indexed": true,
          "internalType": "address",
          "name": "previousOwner",
          "type": "address"
        },
        {
          "indexed": true,
          "internalType": "address",
          "name": "newOwner",
          "type": "address"
        }
      ],
      "name": "OwnershipTransferred",
      "type": "event"
    },
    {
      "anonymous": false,
      "inputs": [
        {
          "indexed": true,
          "internalType": "uint256",
          "name": "proposalId",
          "type": "uint256"
        }
      ],
      "name": "ProposalCanceled",
      "type": "event"
    },
    {
      "anonymous": false,
      "inputs": [
        {
          "indexed": true,
          "internalType": "uint256",
          "name": "proposalId",
          "type": "uint256"
        },
        {
          "indexed": true,
          "internalType": "address",
          "name": "proposer",
          "type": "address"
        },
        {
          "indexed": false,
          "internalType": "string",
          "name": "title",
          "type": "string"
        },
        {
          "indexed": false,
          "internalType": "enum Governance.ProposalType",
          "name": "proposalType",
          "type": "uint8"
        },
        {
          "indexed": false,
          "internalType": "uint256",
          "name": "startTime",
          "type": "uint256"
        },
        {
          "indexed": false,
          "internalType": "uint256",
          "name": "endTime",
          "type": "uint256"
        }
      ],
      "name": "ProposalCreated",
      "type": "event"
    },
    {
      "anonymous": false,
      "inputs": [
        {
          "indexed": true,
          "internalType": "uint256",
          "name": "proposalId",
          "type": "uint256"
        }
      ],
      "name": "ProposalExecuted",
      "type": "event"
    },
    {
      "anonymous": false,
      "inputs": [
        {
          "indexed": true,
          "internalType": "address",
          "name": "user",
          "type": "address"
        },
        {
          "indexed": false,
          "internalType": "uint256",
          "name": "amount",
          "type": "uint256"
        },
        {
          "indexed": false,
          "internalType": "uint256",
          "name": "lockPeriod",
          "type": "uint256"
        }
      ],
      "name": "Staked",
      "type": "event"
    },
    {
      "anonymous": false,
      "inputs": [
        {
          "indexed": true,
          "internalType": "address",
          "name": "user",
          "type": "address"
        },
        {
          "indexed": false,
          "internalType": "uint256",
          "name": "amount",
          "type": "uint256"
        }
      ],
      "name": "Unstaked",
      "type": "event"
    },
    {
      "anonymous": false,
      "inputs": [
        {
          "indexed": true,
          "internalType": "uint256",
          "name": "proposalId",
          "type": "uint256"
        },
        {
          "indexed": true,
          "internalType": "address",
          "name": "voter",
          "type": "address"
        },
        {
          "indexed": false,
          "internalType": "enum Governance.VoteType",
          "name": "voteType",
          "type": "uint8"
        },
        {
          "indexed": false,
          "internalType": "uint256",
          "name": "weight",
          "type": "uint256"
        }
      ],
      "name": "VoteCast",
      "type": "event"
    },
    {
      "inputs": [],
      "name": "EXECUTION_DELAY",
      "outputs": [
        {
          "internalType": "uint256",
          "name": "",
          "type": "uint256"
        }
      ],
      "stateMutability": "view",
      "type": "function"
    },
    {
      "inputs": [],
      "name": "EXECUTION_WINDOW",
      "outputs": [
        {
          "internalType": "uint256",
          "name": "",
          "type": "uint256"
        }
      ],
      "stateMutability": "view",
      "type": "function"
    },
    {
      "inputs": [],
      "name": "INITIAL_TOKEN_GRANT",
      "outputs": [
        {
          "internalType": "uint256",
          "name": "",
          "type": "uint256"
        }
      ],
      "stateMutability": "view",
      "type": "function"
    },
    {
      "inputs": [],
      "name": "MIN_PROPOSAL_THRESHOLD",
      "outputs": [
        {
          "internalType": "uint256",
          "name": "",
          "type": "uint256"
        }
      ],
      "stateMutability": "view",
      "type": "function"
    },
    {
      "inputs": [],
      "name": "QUORUM_PERCENT",
      "outputs": [
        {
          "internalType": "uint256",
          "name": "",
          "type": "uint256"
        }
      ],
      "stateMutability": "view",
      "type": "function"
    },
    {
      "inputs": [],
      "name": "VOTING_DELAY",
      "outputs": [
        {
          "internalType": "uint256",
          "name": "",
          "type": "uint256"
        }
      ],
      "stateMutability": "view",
      "type": "function"
    },
    {
      "inputs": [],
      "name": "VOTING_PERIOD",
      "outputs": [
        {
          "internalType": "uint256",
          "name": "",
          "type": "uint256"
        }
      ],
      "stateMutability": "view",
      "type": "function"
    },
    {
      "inputs": [
        {
          "internalType": "uint256",
          "name": "proposalId",
          "type": "uint256"
        }
      ],
      "name": "cancelProposal",
      "outputs": [],
      "stateMutability": "nonpayable",
      "type": "function"
    },
    {
      "inputs": [
        {
          "internalType": "uint256",
          "name": "proposalId",
          "type": "uint256"
        },
        {
          "internalType": "enum Governance.VoteType",
          "name": "voteType",
          "type": "uint8"
        }
      ],
      "name": "castVote",
      "outputs": [],
      "stateMutability": "nonpayable",
      "type": "function"
    },
    {
      "inputs": [],
      "name": "claimInitialTokens",
      "outputs": [],
      "stateMutability": "nonpayable",
      "type": "function"
    },
    {
      "inputs": [
        {
          "internalType": "string",
          "name": "title",
          "type": "string"
        },
        {
          "internalType": "string",
          "name": "description",
          "type": "string"
        },
        {
          "internalType": "string",
          "name": "ipfsHash",
          "type": "string"
        },
        {
          "internalType": "enum Governance.ProposalType",
          "name": "proposalType",
          "type": "uint8"
        },
        {
          "internalType": "address[]",
          "name": "targets",
          "type": "address[]"
        },
        {
          "internalType": "bytes[]",
          "name": "calldatas",
          "type": "bytes[]"
        }
      ],
      "name": "createProposal",
      "outputs": [
        {
          "internalType": "uint256",
          "name": "",
          "type": "uint256"
        }
      ],
      "stateMutability": "nonpayable",
      "type": "function"
    },
    {
      "inputs": [
        {
          "internalType": "uint256",
          "name": "proposalId",
          "type": "uint256"
        }
      ],
      "name": "executeProposal",
      "outputs": [],
      "stateMutability": "nonpayable",
      "type": "function"
    },
    {
      "inputs": [
        {
          "internalType": "uint256",
          "name": "proposalId",
          "type": "uint256"
        }
      ],
      "name": "getProposal",
      "outputs": [
        {
          "components": [
            {
              "internalType": "uint256",
              "name": "id",
              "type": "uint256"
            },
            {
              "internalType": "address",
              "name": "proposer",
              "type": "address"
            },
            {
              "internalType": "string",
              "name": "title",
              "type": "string"
            },
            {
              "internalType": "string",
              "name": "description",
              "type": "string"
            },
            {
              "internalType": "string",
              "name": "ipfsHash",
              "type": "string"
            },
            {
              "internalType": "enum Governance.ProposalType",
              "name": "proposalType",
              "type": "uint8"
            },
            {
              "internalType": "uint256",
              "name": "forVotes",
              "type": "uint256"
            },
            {
              "internalType": "uint256",
              "name": "againstVotes",
              "type": "uint256"
            },
            {
              "internalType": "uint256",
              "name": "abstainVotes",
              "type": "uint256"
            },
            {
              "internalType": "uint256",
              "name": "startTime",
              "type": "uint256"
            },
            {
              "internalType": "uint256",
              "name": "endTime",
              "type": "uint256"
            },
            {
              "internalType": "uint256",
              "name": "executionTime",
              "type": "uint256"
            },
            {
              "internalType": "bool",
              "name": "executed",
              "type": "bool"
            },
            {
              "internalType": "bool",
              "name": "canceled",
              "type": "bool"
            },
            {
              "internalType": "bytes[]",
              "name": "calldatas",
              "type": "bytes[]"
            },
            {
              "internalType": "address[]",
              "name": "targets",
              "type": "address[]"
            }
          ],
          "internalType": "struct Governance.Proposal",
          "name": "",
          "type": "tuple"
        }
      ],
      "stateMutability": "view",
      "type": "function"
    },
    {
      "inputs": [
        {
          "internalType": "uint256",
          "name": "proposalId",
          "type": "uint256"
        }
      ],
      "name": "getProposalState",
      "outputs": [
        {
          "internalType": "enum Governance.ProposalState",
          "name": "",
          "type": "uint8"
        }
      ],
      "stateMutability": "view",
      "type": "function"
    },
    {
      "inputs": [
        {
          "internalType": "address",
          "name": "user",
          "type": "address"
        }
      ],
      "name": "getStake",
      "outputs": [
        {
          "components": [
            {
              "internalType": "uint256",
              "name": "amount",
              "type": "uint256"
            },
            {
              "internalType": "uint256",
              "name": "stakedAt",
              "type": "uint256"
            },
            {
              "internalType": "uint256",
              "name": "lockPeriod",
              "type": "uint256"
            }
          ],
          "internalType": "struct Governance.Stake",
          "name": "",
          "type": "tuple"
        }
      ],
      "stateMutability": "view",
      "type": "function"
    },
    {
      "inputs": [
        {
          "internalType": "uint256",
          "name": "proposalId",
          "type": "uint256"
        },
        {
          "internalType": "address",
          "name": "voter",
          "type": "address"
        }
      ],
      "name": "getVote",
      "outputs": [
        {
          "components": [
            {
              "internalType": "bool",
              "name": "hasVoted",
              "type": "bool"
            },
            {
              "internalType": "enum Governance.VoteType",
              "name": "voteType",
              "type": "uint8"
            },
            {
              "internalType": "uint256",
              "name": "weight",
              "type": "uint256"
            }
          ],
          "internalType": "struct Governance.Vote",
          "name": "",
          "type": "tuple"
        }
      ],
      "stateMutability": "view",
      "type": "function"
    },
    {
      "inputs": [
        {
          "internalType": "address",
          "name": "user",
          "type": "address"
        }
      ],
      "name": "getVotingPower",
      "outputs": [
        {
          "internalType": "uint256",
          "name": "",
          "type": "uint256"
        }
      ],
      "stateMutability": "view",
      "type": "function"
    },
    {
      "inputs": [
        {
          "internalType": "address",
          "name": "",
          "type": "address"
        }
      ],
      "name": "hasClaimedInitialTokens",
      "outputs": [
        {
          "internalType": "bool",
          "name": "",
          "type": "bool"
        }
      ],
      "stateMutability": "view",
      "type": "function"
    },
    {
      "inputs": [],
      "name": "owner",
      "outputs": [
        {
          "internalType": "address",
          "name": "",
          "type": "address"
        }
      ],
      "stateMutability": "view",
      "type": "function"
    },
    {
      "inputs": [],
      "name": "proposalCount",
      "outputs": [
        {
          "internalType": "uint256",
          "name": "",
          "type": "uint256"
        }
      ],
      "stateMutability": "view",
      "type": "function"
    },
    {
      "inputs": [
        {
          "internalType": "uint256",
          "name": "",
          "type": "uint256"
        }
      ],
      "name": "proposals",
      "outputs": [
        {
          "internalType": "uint256",
          "name": "id",
          "type": "uint256"
        },
        {
          "internalType": "address",
          "name": "proposer",
          "type": "address"
        },
        {
          "internalType": "string",
          "name": "title",
          "type": "string"
        },
        {
          "internalType": "string",
          "name": "description",
          "type": "string"
        },
        {
          "internalType": "string",
          "name": "ipfsHash",
          "type": "string"
        },
        {
          "internalType": "enum Governance.ProposalType",
          "name": "proposalType",
          "type": "uint8"
        },
        {
          "internalType": "uint256",
          "name": "forVotes",
          "type": "uint256"
        },
        {
          "internalType": "uint256",
          "name": "againstVotes",
          "type": "uint256"
        },
        {
          "internalType": "uint256",
          "name": "abstainVotes",
          "type": "uint256"
        },
        {
          "internalType": "uint256",
          "name": "startTime",
          "type": "uint256"
        },
        {
          "internalType": "uint256",
          "name": "endTime",
          "type": "uint256"
        },
        {
          "internalType": "uint256",
          "name": "executionTime",
          "type": "uint256"
        },
        {
          "internalType": "bool",
          "name": "executed",
          "type": "bool"
        },
        {
          "internalType": "bool",
          "name": "canceled",
          "type": "bool"
        }
      ],
      "stateMutability": "view",
      "type": "function"
    },
    {
      "inputs": [
        {
          "internalType": "uint256",
          "name": "proposalId",
          "type": "uint256"
        }
      ],
      "name": "queueProposal",
      "outputs": [],
      "stateMutability": "nonpayable",
      "type": "function"
    },
    {
      "inputs": [],
      "name": "renounceOwnership",
      "outputs": [],
      "stateMutability": "nonpayable",
      "type": "function"
    },
    {
      "inputs": [
        {
          "internalType": "uint256",
          "name": "lockPeriod",
          "type": "uint256"
        }
      ],
      "name": "stake",
      "outputs": [],
      "stateMutability": "payable",
      "type": "function"
    },
    {
      "inputs": [
        {
          "internalType": "address",
          "name": "",
          "type": "address"
        }
      ],
      "name": "stakes",
      "outputs": [
        {
          "internalType": "uint256",
          "name": "amount",
          "type": "uint256"
        },
        {
          "internalType": "uint256",
          "name": "stakedAt",
          "type": "uint256"
        },
        {
          "internalType": "uint256",
          "name": "lockPeriod",
          "type": "uint256"
        }
      ],
      "stateMutability": "view",
      "type": "function"
    },
    {
      "inputs": [],
      "name": "totalStaked",
      "outputs": [
        {
          "internalType": "uint256",
          "name": "",
          "type": "uint256"
        }
      ],
      "stateMutability": "view",
      "type": "function"
    },
    {
      "inputs": [
        {
          "internalType": "address",
          "name": "newOwner",
          "type": "address"
        }
      ],
      "name": "transferOwnership",
      "outputs": [],
      "stateMutability": "nonpayable",
      "type": "function"
    },
    {
      "inputs": [
        {
          "internalType": "uint256",
          "name": "amount",
          "type": "uint256"
        }
      ],
      "name": "unstake",
      "outputs": [],
      "stateMutability": "nonpayable",
      "type": "function"
    },
    {
      "inputs": [
        {
          "internalType": "uint256",
          "name": "",
          "type": "uint256"
        },
        {
          "internalType": "address",
          "name": "",
          "type": "address"
        }
      ],
      "name": "votes",
      "outputs": [
        {
          "internalType": "bool",
          "name": "hasVoted",
          "type": "bool"
        },
        {
          "internalType": "enum Governance.VoteType",
          "name": "voteType",
          "type": "uint8"
        },
        {
          "internalType": "uint256",
          "name": "weight",
          "type": "uint256"
        }
      ],
      "stateMutability": "view",
      "type": "function"
    },
    {
      "inputs": [
        {
          "internalType": "address",
          "name": "",
          "type": "address"
        }
      ],
      "name": "votingPower",
      "outputs": [
        {
          "internalType": "uint256",
          "name": "",
          "type": "uint256"
        }
      ],
      "stateMutability": "view",
      "type": "function"
    }
  ],
  "bytecode": "0x60806040523480156200001157600080fd5b5033806200003957604051631e4fbdf760e01b81526000600482015260240160405180910390fd5b62000044816200004f565b50600180556200009f565b600080546001600160a01b038381166001600160a01b0319831681178455604051919092169283917f8be0079c531659141344cd1fd0a4f28419497f9722a3daafe3b4186f6b6457e09190a35050565b612d3980620000af6000396000f3fe6080604052600436106101cd5760003560e01c80639080936f116100f7578063c7f758a811610095578063e0a8f6f511610064578063e0a8f6f5146105e2578063f2fde38b14610602578063f5696aab14610622578063f71901971461063f57600080fd5b8063c7f758a81461052d578063d23254b41461055a578063d6159fe5146105b5578063da35c664146105cc57600080fd5b8063b1610d7e116100d1578063b1610d7e14610486578063bb4d44361461049d578063bc3f931f146104d3578063c07473f61461050057600080fd5b80639080936f1461042657806394a14a3414610453578063a694fc3a1461047357600080fd5b80633e65164a1161016f578063791f5d231161013e578063791f5d23146103895780637a766460146103a6578063817b1cd2146103e85780638da5cb5b146103fe57600080fd5b80633e65164a146103285780634e70d1a91461033f5780635678138814610354578063715018a61461037457600080fd5b8063208fb590116101ab578063208fb5901461028e57806323fdf0d9146102b15780632e17de78146102f157806337f135d71461031157600080fd5b8063013cf08b146101d25780630d61b5191461021557806316934fc414610237575b600080fd5b3480156101de57600080fd5b506101f26101ed366004612339565b61065f565b60405161020c9e9d9c9b9a999897969594939291906123c2565b60405180910390f35b34801561022157600080fd5b50610235610230366004612339565b610875565b005b34801561024357600080fd5b50610273610252366004612491565b60066020526000908152604090208054600182015460029092015490919083565b6040805193845260208401929092529082015260600161020c565b34801561029a57600080fd5b506102a3600481565b60405190815260200161020c565b3480156102bd57600080fd5b506102e16102cc366004612491565b60086020526000908152604090205460ff1681565b604051901515815260200161020c565b3480156102fd57600080fd5b5061023561030c366004612339565b610aa1565b34801561031d57600080fd5b506102a36202a30081565b34801561033457600080fd5b506102a36212750081565b34801561034b57600080fd5b50610235610c67565b34801561036057600080fd5b5061023561036f3660046124b3565b610d6b565b34801561038057600080fd5b50610235610fe9565b34801561039557600080fd5b506102a368056bc75e2d6310000081565b3480156103b257600080fd5b506103c66103c1366004612491565b610ffd565b604080518251815260208084015190820152918101519082015260600161020c565b3480156103f457600080fd5b506102a360035481565b34801561040a57600080fd5b506000546040516001600160a01b03909116815260200161020c565b34801561043257600080fd5b50610446610441366004612339565b611063565b60405161020c91906124e7565b34801561045f57600080fd5b5061023561046e366004612339565b611546565b610235610481366004612339565b6115c1565b34801561049257600080fd5b506102a362093a8081565b3480156104a957600080fd5b506102a36104b8366004612491565b6001600160a01b031660009081526007602052604090205490565b3480156104df57600080fd5b506104f36104ee366004612501565b6117ad565b60405161020c919061253d565b34801561050c57600080fd5b506102a361051b366004612491565b60076020526000908152604090205481565b34801561053957600080fd5b5061054d610548366004612339565b611846565b60405161020c9190612602565b34801561056657600080fd5b506105a6610575366004612501565b60056020908152600092835260408084209091529082529020805460019091015460ff808316926101009004169083565b60405161020c93929190612753565b3480156105c157600080fd5b506102a36201518081565b3480156105d857600080fd5b506102a360025481565b3480156105ee57600080fd5b506102356105fd366004612339565b611c17565b34801561060e57600080fd5b5061023561061d366004612491565b611d3b565b34801561062e57600080fd5b506102a3683635c9adc5dea0000081565b34801561064b57600080fd5b506102a361065a366004612970565b611d76565b60046020526000908152604090208054600182015460028301805492936001600160a01b039092169261069190612a51565b80601f01602080910402602001604051908101604052809291908181526020018280546106bd90612a51565b801561070a5780601f106106df5761010080835404028352916020019161070a565b820191906000526020600020905b8154815290600101906020018083116106ed57829003601f168201915b50505050509080600301805461071f90612a51565b80601f016020809104026020016040519081016040528092919081815260200182805461074b90612a51565b80156107985780601f1061076d57610100808354040283529160200191610798565b820191906000526020600020905b81548152906001019060200180831161077b57829003601f168201915b5050505050908060040180546107ad90612a51565b80601f01602080910402602001604051908101604052809291908181526020018280546107d990612a51565b80156108265780601f106107fb57610100808354040283529160200191610826565b820191906000526020600020905b81548152906001019060200180831161080957829003601f168201915b50505060058401546006850154600786015460088701546009880154600a890154600b8a0154600c909a0154989960ff968716999598509396509194909391929180821691610100909104168e565b61087d6120d4565b600061088882611063565b9050600581600781111561089e5761089e612398565b146108f05760405162461bcd60e51b815260206004820152601760248201527f4e6f7420726561647920666f7220657865637574696f6e00000000000000000060448201526064015b60405180910390fd5b6000828152600460205260409020600b01544210156109475760405162461bcd60e51b8152602060048201526013602482015272151a5b595b1bd8dac81b9bdd081c185cdcd959606a1b60448201526064016108e7565b6000828152600460205260408120600c8101805460ff19166001179055905b600e820154811015610a6757600082600e01828154811061098957610989612a8b565b600091825260209091200154600d840180546001600160a01b0390921691849081106109b7576109b7612a8b565b906000526020600020016040516109ce9190612aa1565b6000604051808303816000865af19150503d8060008114610a0b576040519150601f19603f3d011682016040523d82523d6000602084013e610a10565b606091505b5050905080610a545760405162461bcd60e51b815260206004820152601060248201526f115e1958dd5d1a5bdb8819985a5b195960821b60448201526064016108e7565b5080610a5f81612b2d565b915050610966565b5060405183907f712ae1383f79ac853f8d882153778e0260ef8f03b504e2866e0593e04d2b291f90600090a25050610a9e60018055565b50565b610aa96120d4565b3360009081526006602052604090208054821115610afe5760405162461bcd60e51b8152602060048201526012602482015271496e73756666696369656e74207374616b6560701b60448201526064016108e7565b80600201548160010154610b129190612b46565b421015610b575760405162461bcd60e51b8152602060048201526013602482015272151bdad95b9cc81cdd1a5b1b081b1bd8dad959606a1b60448201526064016108e7565b60006301e13380826002015461012c610b709190612b59565b610b7a9190612b70565b610b85906064612b46565b905060006064610b958386612b59565b610b9f9190612b70565b905083836000016000828254610bb59190612b92565b90915550503360009081526007602052604081208054839290610bd9908490612b92565b925050819055508360036000828254610bf29190612b92565b9091555050604051339085156108fc029086906000818181858888f19350505050158015610c24573d6000803e3d6000fd5b5060405184815233907f0f5bb82176feb1b5e747e28471aa92156a04d9f3ab9f45f28e2d704232b93f75906020015b60405180910390a2505050610a9e60018055565b3360009081526008602052604090205460ff1615610cc75760405162461bcd60e51b815260206004820152601e60248201527f416c726561647920636c61696d656420696e697469616c20746f6b656e73000060448201526064016108e7565b336000908152600860209081526040808320805460ff19166001179055600790915281208054683635c9adc5dea000009290610d04908490612b46565b92505081905550683635c9adc5dea0000060036000828254610d269190612b46565b9091555050604051683635c9adc5dea00000815233907fa2b4124a22f1314acb7d63250764598664c94aebe1296b7dd24d9099c00fe89a9060200160405180910390a2565b6001610d7683611063565b6007811115610d8757610d87612398565b14610dc85760405162461bcd60e51b8152602060048201526011602482015270566f74696e67206e6f742061637469766560781b60448201526064016108e7565b600082815260056020908152604080832033845290915290205460ff1615610e225760405162461bcd60e51b815260206004820152600d60248201526c105b1c9958591e481d9bdd1959609a1b60448201526064016108e7565b33600090815260076020526040902054610e705760405162461bcd60e51b815260206004820152600f60248201526e2737903b37ba34b733903837bbb2b960891b60448201526064016108e7565b33600090815260076020908152604091829020548251606081019093526001835291908101836002811115610ea757610ea7612398565b815260209081018390526000858152600582526040808220338352835290208251815490151560ff19821681178355928401519192839161ff001990911661ffff1990911617610100836002811115610f0257610f02612398565b0217905550604091820151600191820155600085815260046020529190912090836002811115610f3457610f34612398565b03610f585781816006016000828254610f4d9190612b46565b90915550610f9f9050565b6000836002811115610f6c57610f6c612398565b03610f855781816007016000828254610f4d9190612b46565b81816008016000828254610f999190612b46565b90915550505b336001600160a01b0316847fb83d25c6a5d258561330739951487acb4bd09ba5190b5d32c4f261817d9067928585604051610fdb929190612ba5565b60405180910390a350505050565b610ff16120fe565b610ffb600061212b565b565b61102160405180606001604052806000815260200160008152602001600081525090565b506001600160a01b0316600090815260066020908152604091829020825160608101845281548152600182015492810192909252600201549181019190915290565b60008181526004602090815260408083208151610200810183528154815260018201546001600160a01b031693810193909352600281018054859493840191906110ac90612a51565b80601f01602080910402602001604051908101604052809291908181526020018280546110d890612a51565b80156111255780601f106110fa57610100808354040283529160200191611125565b820191906000526020600020905b81548152906001019060200180831161110857829003601f168201915b5050505050815260200160038201805461113e90612a51565b80601f016020809104026020016040519081016040528092919081815260200182805461116a90612a51565b80156111b75780601f1061118c576101008083540402835291602001916111b7565b820191906000526020600020905b81548152906001019060200180831161119a57829003601f168201915b505050505081526020016004820180546111d090612a51565b80601f01602080910402602001604051908101604052809291908181526020018280546111fc90612a51565b80156112495780601f1061121e57610100808354040283529160200191611249565b820191906000526020600020905b81548152906001019060200180831161122c57829003601f168201915b5050509183525050600582015460209091019060ff16600481111561127057611270612398565b600481111561128157611281612398565b8152600682015460208083019190915260078301546040808401919091526008840154606084015260098401546080840152600a84015460a0840152600b84015460c0840152600c84015460ff808216151560e08601526101009182900416151590840152600d8401805482518185028101850190935280835261012090940193919290919060009084015b828210156113b957838290600052602060002001805461132c90612a51565b80601f016020809104026020016040519081016040528092919081815260200182805461135890612a51565b80156113a55780601f1061137a576101008083540402835291602001916113a5565b820191906000526020600020905b81548152906001019060200180831161138857829003601f168201915b50505050508152602001906001019061130d565b505050508152602001600e820180548060200260200160405190810160405280929190818152602001828054801561141a57602002820191906000526020600020905b81546001600160a01b031681526001909101906020018083116113fc575b5050505050815250509050806101a00151156114395750600292915050565b8061018001511561144d5750600692915050565b8061012001514210156114635750600092915050565b80610140015142116114785750600192915050565b60008161010001518260e001518360c001516114949190612b46565b61149e9190612b46565b90506000606460046003546114b39190612b59565b6114bd9190612b70565b9050808210806114d557508260e001518360c0015111155b156114e557506003949350505050565b8261016001516000036114fd57506004949350505050565b82610160015142101561151557506005949350505050565b621275008361016001516115299190612b46565b42111561153b57506007949350505050565b506005949350505050565b600461155182611063565b600781111561156257611562612398565b1461159f5760405162461bcd60e51b815260206004820152600d60248201526c139bdd081cdd58d8d959591959609a1b60448201526064016108e7565b6115ac6202a30042612b46565b600091825260046020526040909120600b0155565b6115c96120d4565b600034116116195760405162461bcd60e51b815260206004820152601d60248201527f416d6f756e74206d7573742062652067726561746572207468616e203000000060448201526064016108e7565b62093a8081101561166c5760405162461bcd60e51b815260206004820152601960248201527f4d696e206c6f636b20706572696f64206973203720646179730000000000000060448201526064016108e7565b6301e133808111156116c05760405162461bcd60e51b815260206004820152601b60248201527f4d6178206c6f636b20706572696f64206973203336352064617973000000000060448201526064016108e7565b336000908152600660205260408120906301e133806116e18461012c612b59565b6116eb9190612b70565b6116f6906064612b46565b9050600060646117068334612b59565b6117109190612b70565b9050348360000160008282546117269190612b46565b9091555050426001840155600283018490553360009081526007602052604081208054839290611757908490612b46565b9250508190555034600360008282546117709190612b46565b9091555050604080513481526020810186905233917f1449c6dd7851abc30abf37f57715f492010519147cc2652fbc38202c18a6ee909101610c53565b604080516060810182526000808252602082018190529181019190915260008381526005602090815260408083206001600160a01b0386168452825291829020825160608101909352805460ff80821615158552919284019161010090910416600281111561181e5761181e612398565b600281111561182f5761182f612398565b815260200160018201548152505090505b92915050565b61184e61217b565b6000828152600460209081526040918290208251610200810184528154815260018201546001600160a01b031692810192909252600281018054929391929184019161189990612a51565b80601f01602080910402602001604051908101604052809291908181526020018280546118c590612a51565b80156119125780601f106118e757610100808354040283529160200191611912565b820191906000526020600020905b8154815290600101906020018083116118f557829003601f168201915b5050505050815260200160038201805461192b90612a51565b80601f016020809104026020016040519081016040528092919081815260200182805461195790612a51565b80156119a45780601f10611979576101008083540402835291602001916119a4565b820191906000526020600020905b81548152906001019060200180831161198757829003601f168201915b505050505081526020016004820180546119bd90612a51565b80601f01602080910402602001604051908101604052809291908181526020018280546119e990612a51565b8015611a365780601f10611a0b57610100808354040283529160200191611a36565b820191906000526020600020905b815481529060010190602001808311611a1957829003601f168201915b5050509183525050600582015460209091019060ff166004811115611a5d57611a5d612398565b6004811115611a6e57611a6e612398565b8152600682015460208083019190915260078301546040808401919091526008840154606084015260098401546080840152600a84015460a0840152600b84015460c0840152600c84015460ff808216151560e08601526101009182900416151590840152600d8401805482518185028101850190935280835261012090940193919290919060009084015b82821015611ba6578382906000526020600020018054611b1990612a51565b80601f0160208091040260200160405190810160405280929190818152602001828054611b4590612a51565b8015611b925780601f10611b6757610100808354040283529160200191611b92565b820191906000526020600020905b815481529060010190602001808311611b7557829003601f168201915b505050505081526020019060010190611afa565b505050508152602001600e8201805480602002602001604051908101604052809291908181526020018280548015611c0757602002820191906000526020600020905b81546001600160a01b03168152600190910190602001808311611be9575b5050505050815250509050919050565b600081815260046020526040902060018101546001600160a01b03163314611c715760405162461bcd60e51b815260206004820152600d60248201526c27b7363c90383937b837b9b2b960991b60448201526064016108e7565b600c81015460ff1615611cb95760405162461bcd60e51b815260206004820152601060248201526f105b1c9958591e48195e1958dd5d195960821b60448201526064016108e7565b80600a01544210611cfb5760405162461bcd60e51b815260206004820152600c60248201526b159bdd1a5b99c8195b99195960a21b60448201526064016108e7565b600c8101805461ff00191661010017905560405182907f789cf55be980739dad1d0699b93b58e806b51c9d96619bfa8fe0a28abaa7b30c90600090a25050565b611d436120fe565b6001600160a01b038116611d6d57604051631e4fbdf760e01b8152600060048201526024016108e7565b610a9e8161212b565b3360009081526007602052604081205468056bc75e2d631000001115611dde5760405162461bcd60e51b815260206004820152601960248201527f496e73756666696369656e7420766f74696e6720706f7765720000000000000060448201526064016108e7565b6000875111611e205760405162461bcd60e51b815260206004820152600e60248201526d151a5d1b19481c995c5d5a5c995960921b60448201526064016108e7565b8151835114611e695760405162461bcd60e51b8152602060048201526015602482015274082e4e4c2f240d8cadccee8d040dad2e6dac2e8c6d605b1b60448201526064016108e7565b60028054906000611e7983612b2d565b90915550506002546000611e906201518042612b46565b90506000611ea162093a8083612b46565b9050604051806102000160405280848152602001336001600160a01b031681526020018b81526020018a8152602001898152602001886004811115611ee857611ee8612398565b8152600060208083018290526040808401839052606084018390526080840187905260a0840186905260c0840183905260e08401839052610100840183905261012084018a90526101409093018a9052868252600481529082902083518155908301516001820180546001600160a01b0319166001600160a01b03909216919091179055908201516002820190611f7f9082612c0f565b5060608201516003820190611f949082612c0f565b5060808201516004820190611fa99082612c0f565b5060a082015160058201805460ff19166001836004811115611fcd57611fcd612398565b021790555060c0820151600682015560e082015160078201556101008083015160088301556101208301516009830155610140830151600a830155610160830151600b830155610180830151600c830180546101a086015161ffff1990911692151561ff001916929092179115159092021790556101c0820151805161205d91600d840191602090910190612216565b506101e0820151805161207a91600e84019160209091019061226c565b50905050336001600160a01b0316837ffd3a4372829eebfa1fcdd5a6e4bbbeb5b140261c36928520367a19665a17a9968c8a86866040516120be9493929190612ccf565b60405180910390a3509098975050505050505050565b6002600154036120f757604051633ee5aeb560e01b815260040160405180910390fd5b6002600155565b6000546001600160a01b03163314610ffb5760405163118cdaa760e01b81523360048201526024016108e7565b600080546001600160a01b038381166001600160a01b0319831681178455604051919092169283917f8be0079c531659141344cd1fd0a4f28419497f9722a3daafe3b4186f6b6457e09190a35050565b6040518061020001604052806000815260200160006001600160a01b03168152602001606081526020016060815260200160608152602001600060048111156121c6576121c6612398565b815260200160008152602001600081526020016000815260200160008152602001600081526020016000815260200160001515815260200160001515815260200160608152602001606081525090565b82805482825590600052602060002090810192821561225c579160200282015b8281111561225c578251829061224c9082612c0f565b5091602001919060010190612236565b506122689291506122cd565b5090565b8280548282559060005260206000209081019282156122c1579160200282015b828111156122c157825182546001600160a01b0319166001600160a01b0390911617825560209092019160019091019061228c565b506122689291506122ea565b808211156122685760006122e182826122ff565b506001016122cd565b5b8082111561226857600081556001016122eb565b50805461230b90612a51565b6000825580601f1061231b575050565b601f016020900490600052602060002090810190610a9e91906122ea565b60006020828403121561234b57600080fd5b5035919050565b6000815180845260005b818110156123785760208185018101518683018201520161235c565b506000602082860101526020601f19601f83011685010191505092915050565b634e487b7160e01b600052602160045260246000fd5b600581106123be576123be612398565b9052565b8e81526001600160a01b038e1660208201526101c0604082015260006123ec6101c083018f612352565b82810360608401526123fe818f612352565b90508281036080840152612412818e612352565b91505061242260a083018c6123ae565b8960c08301528860e08301528761010083015286610120830152856101408301528461016083015261245961018083018515159052565b8215156101a08301529f9e505050505050505050505050505050565b80356001600160a01b038116811461248c57600080fd5b919050565b6000602082840312156124a357600080fd5b6124ac82612475565b9392505050565b600080604083850312156124c657600080fd5b823591506020830135600381106124dc57600080fd5b809150509250929050565b60208101600883106124fb576124fb612398565b91905290565b6000806040838503121561251457600080fd5b8235915061252460208401612475565b90509250929050565b600381106123be576123be612398565b815115158152602080830151606083019161255a9084018261252d565b50604092830151919092015290565b600081518084526020808501808196508360051b8101915082860160005b858110156125b157828403895261259f848351612352565b98850198935090840190600101612587565b5091979650505050505050565b600081518084526020808501945080840160005b838110156125f75781516001600160a01b0316875295820195908201906001016125d2565b509495945050505050565b60208152815160208201526000602083015161262960408401826001600160a01b03169052565b506040830151610200806060850152612646610220850183612352565b91506060850151601f19808685030160808701526126648483612352565b935060808701519150808685030160a08701526126818483612352565b935060a0870151915061269760c08701836123ae565b60c087015160e087810191909152870151610100808801919091528701516101208088019190915287015161014080880191909152870151610160808801919091528701516101808088019190915287015191506101a06126fb8188018415159052565b87015191506101c06127108782018415159052565b808801519250506101e081878603018188015261272d8584612569565b90880151878203909201848801529350905061274983826125be565b9695505050505050565b831515815260608101612769602083018561252d565b826040830152949350505050565b634e487b7160e01b600052604160045260246000fd5b604051601f8201601f1916810167ffffffffffffffff811182821017156127b6576127b6612777565b604052919050565b600067ffffffffffffffff8311156127d8576127d8612777565b6127eb601f8401601f191660200161278d565b90508281528383830111156127ff57600080fd5b828260208301376000602084830101529392505050565b600082601f83011261282757600080fd5b6124ac838335602085016127be565b80356005811061248c57600080fd5b600067ffffffffffffffff82111561285f5761285f612777565b5060051b60200190565b600082601f83011261287a57600080fd5b8135602061288f61288a83612845565b61278d565b82815260059290921b840181019181810190868411156128ae57600080fd5b8286015b848110156128d0576128c381612475565b83529183019183016128b2565b509695505050505050565b600082601f8301126128ec57600080fd5b813560206128fc61288a83612845565b82815260059290921b8401810191818101908684111561291b57600080fd5b8286015b848110156128d057803567ffffffffffffffff81111561293f5760008081fd5b8701603f810189136129515760008081fd5b6129628986830135604084016127be565b84525091830191830161291f565b60008060008060008060c0878903121561298957600080fd5b863567ffffffffffffffff808211156129a157600080fd5b6129ad8a838b01612816565b975060208901359150808211156129c357600080fd5b6129cf8a838b01612816565b965060408901359150808211156129e557600080fd5b6129f18a838b01612816565b95506129ff60608a01612836565b94506080890135915080821115612a1557600080fd5b612a218a838b01612869565b935060a0890135915080821115612a3757600080fd5b50612a4489828a016128db565b9150509295509295509295565b600181811c90821680612a6557607f821691505b602082108103612a8557634e487b7160e01b600052602260045260246000fd5b50919050565b634e487b7160e01b600052603260045260246000fd5b6000808354612aaf81612a51565b60018281168015612ac75760018114612adc57612b0b565b60ff1984168752821515830287019450612b0b565b8760005260208060002060005b85811015612b025781548a820152908401908201612ae9565b50505082870194505b50929695505050505050565b634e487b7160e01b600052601160045260246000fd5b600060018201612b3f57612b3f612b17565b5060010190565b8082018082111561184057611840612b17565b808202811582820484141761184057611840612b17565b600082612b8d57634e487b7160e01b600052601260045260246000fd5b500490565b8181038181111561184057611840612b17565b60408101612bb3828561252d565b8260208301529392505050565b601f821115612c0a57600081815260208120601f850160051c81016020861015612be75750805b601f850160051c820191505b81811015612c0657828155600101612bf3565b5050505b505050565b815167ffffffffffffffff811115612c2957612c29612777565b612c3d81612c378454612a51565b84612bc0565b602080601f831160018114612c725760008415612c5a5750858301515b600019600386901b1c1916600185901b178555612c06565b600085815260208120601f198616915b82811015612ca157888601518255948401946001909101908401612c82565b5085821015612cbf5787850151600019600388901b60f8161c191681555b5050505050600190811b01905550565b608081526000612ce26080830187612352565b9050612cf160208301866123ae565b6040820193909352606001529291505056fea26469706673582212208302c04dccb307fbb55d90db195d93f91bcebe50689849def468dde6604ca20c64736f6c63430008140033",
  "linkReferences": {},
  "deployedLinkReferences": {}
}