{
  "_format": "hh-sol-artifact-1",
  "contractName": "Governance",
  "sourceName": "contracts/Governance.sol",
  "abi": [
    {
      "inputs": [],
      "stateMutability": "nonpayable",
      "type": "constructor"
    },
    {
      "inputs": [
        {
          "internalType": "address",
          "name": "owner",
          "type": "address"
        }
      ],
      "name": "OwnableInvalidOwner",
      "type": "error"
    },
    {
      "inputs": [
        {
          "internalType": "address",
          "name": "account",
          "type": "address"
        }
      ],
      "name": "OwnableUnauthorizedAccount",
      "type": "error"
    },
    {
      "inputs": [],
      "name": "ReentrancyGuardReentrantCall",
      "type": "error"
    },
    {
      "anonymous": false,
      "inputs": [
        {
          "indexed": true,
          "internalType": "address",
          "name": "delegator",
          "type": "address"
        },
        {
          "indexed": true,
          "internalType": "address",
          "name": "toDelegate",
          "type": "address"
        }
      ],
      "name": "DelegateChanged",
      "type": "event"
    },
    {
      "anonymous": false,
      "inputs": [
        {
          "indexed": true,
          "internalType": "address",
          "name": "previousOwner",
          "type": "address"
        },
        {
          "indexed": true,
          "internalType": "address",
          "name": "newOwner",
          "type": "address"
        }
      ],
      "name": "OwnershipTransferred",
      "type": "event"
    },
    {
      "anonymous": false,
      "inputs": [
        {
          "indexed": true,
          "internalType": "uint256",
          "name": "proposalId",
          "type": "uint256"
        }
      ],
      "name": "ProposalCanceled",
      "type": "event"
    },
    {
      "anonymous": false,
      "inputs": [
        {
          "indexed": true,
          "internalType": "uint256",
          "name": "proposalId",
          "type": "uint256"
        },
        {
          "indexed": true,
          "internalType": "address",
          "name": "proposer",
          "type": "address"
        },
        {
          "indexed": false,
          "internalType": "string",
          "name": "title",
          "type": "string"
        },
        {
          "indexed": false,
          "internalType": "enum Governance.ProposalType",
          "name": "proposalType",
          "type": "uint8"
        },
        {
          "indexed": false,
          "internalType": "uint256",
          "name": "startTime",
          "type": "uint256"
        },
        {
          "indexed": false,
          "internalType": "uint256",
          "name": "endTime",
          "type": "uint256"
        }
      ],
      "name": "ProposalCreated",
      "type": "event"
    },
    {
      "anonymous": false,
      "inputs": [
        {
          "indexed": true,
          "internalType": "uint256",
          "name": "proposalId",
          "type": "uint256"
        }
      ],
      "name": "ProposalExecuted",
      "type": "event"
    },
    {
      "anonymous": false,
      "inputs": [
        {
          "indexed": true,
          "internalType": "address",
          "name": "user",
          "type": "address"
        },
        {
          "indexed": false,
          "internalType": "uint256",
          "name": "amount",
          "type": "uint256"
        },
        {
          "indexed": false,
          "internalType": "uint256",
          "name": "lockPeriod",
          "type": "uint256"
        }
      ],
      "name": "Staked",
      "type": "event"
    },
    {
      "anonymous": false,
      "inputs": [
        {
          "indexed": true,
          "internalType": "address",
          "name": "user",
          "type": "address"
        },
        {
          "indexed": false,
          "internalType": "uint256",
          "name": "amount",
          "type": "uint256"
        }
      ],
      "name": "Unstaked",
      "type": "event"
    },
    {
      "anonymous": false,
      "inputs": [
        {
          "indexed": true,
          "internalType": "uint256",
          "name": "proposalId",
          "type": "uint256"
        },
        {
          "indexed": true,
          "internalType": "address",
          "name": "voter",
          "type": "address"
        },
        {
          "indexed": false,
          "internalType": "enum Governance.VoteType",
          "name": "voteType",
          "type": "uint8"
        },
        {
          "indexed": false,
          "internalType": "uint256",
          "name": "weight",
          "type": "uint256"
        }
      ],
      "name": "VoteCast",
      "type": "event"
    },
    {
      "inputs": [],
      "name": "EXECUTION_DELAY",
      "outputs": [
        {
          "internalType": "uint256",
          "name": "",
          "type": "uint256"
        }
      ],
      "stateMutability": "view",
      "type": "function"
    },
    {
      "inputs": [],
      "name": "EXECUTION_WINDOW",
      "outputs": [
        {
          "internalType": "uint256",
          "name": "",
          "type": "uint256"
        }
      ],
      "stateMutability": "view",
      "type": "function"
    },
    {
      "inputs": [],
      "name": "MIN_PROPOSAL_THRESHOLD",
      "outputs": [
        {
          "internalType": "uint256",
          "name": "",
          "type": "uint256"
        }
      ],
      "stateMutability": "view",
      "type": "function"
    },
    {
      "inputs": [],
      "name": "QUORUM_PERCENT",
      "outputs": [
        {
          "internalType": "uint256",
          "name": "",
          "type": "uint256"
        }
      ],
      "stateMutability": "view",
      "type": "function"
    },
    {
      "inputs": [],
      "name": "VOTING_DELAY",
      "outputs": [
        {
          "internalType": "uint256",
          "name": "",
          "type": "uint256"
        }
      ],
      "stateMutability": "view",
      "type": "function"
    },
    {
      "inputs": [],
      "name": "VOTING_PERIOD",
      "outputs": [
        {
          "internalType": "uint256",
          "name": "",
          "type": "uint256"
        }
      ],
      "stateMutability": "view",
      "type": "function"
    },
    {
      "inputs": [
        {
          "internalType": "uint256",
          "name": "proposalId",
          "type": "uint256"
        }
      ],
      "name": "cancelProposal",
      "outputs": [],
      "stateMutability": "nonpayable",
      "type": "function"
    },
    {
      "inputs": [
        {
          "internalType": "uint256",
          "name": "proposalId",
          "type": "uint256"
        },
        {
          "internalType": "enum Governance.VoteType",
          "name": "voteType",
          "type": "uint8"
        }
      ],
      "name": "castVote",
      "outputs": [],
      "stateMutability": "nonpayable",
      "type": "function"
    },
    {
      "inputs": [
        {
          "internalType": "string",
          "name": "title",
          "type": "string"
        },
        {
          "internalType": "string",
          "name": "description",
          "type": "string"
        },
        {
          "internalType": "string",
          "name": "ipfsHash",
          "type": "string"
        },
        {
          "internalType": "enum Governance.ProposalType",
          "name": "proposalType",
          "type": "uint8"
        },
        {
          "internalType": "address[]",
          "name": "targets",
          "type": "address[]"
        },
        {
          "internalType": "bytes[]",
          "name": "calldatas",
          "type": "bytes[]"
        }
      ],
      "name": "createProposal",
      "outputs": [
        {
          "internalType": "uint256",
          "name": "",
          "type": "uint256"
        }
      ],
      "stateMutability": "nonpayable",
      "type": "function"
    },
    {
      "inputs": [
        {
          "internalType": "uint256",
          "name": "proposalId",
          "type": "uint256"
        }
      ],
      "name": "executeProposal",
      "outputs": [],
      "stateMutability": "nonpayable",
      "type": "function"
    },
    {
      "inputs": [
        {
          "internalType": "uint256",
          "name": "proposalId",
          "type": "uint256"
        }
      ],
      "name": "getProposal",
      "outputs": [
        {
          "components": [
            {
              "internalType": "uint256",
              "name": "id",
              "type": "uint256"
            },
            {
              "internalType": "address",
              "name": "proposer",
              "type": "address"
            },
            {
              "internalType": "string",
              "name": "title",
              "type": "string"
            },
            {
              "internalType": "string",
              "name": "description",
              "type": "string"
            },
            {
              "internalType": "string",
              "name": "ipfsHash",
              "type": "string"
            },
            {
              "internalType": "enum Governance.ProposalType",
              "name": "proposalType",
              "type": "uint8"
            },
            {
              "internalType": "uint256",
              "name": "forVotes",
              "type": "uint256"
            },
            {
              "internalType": "uint256",
              "name": "againstVotes",
              "type": "uint256"
            },
            {
              "internalType": "uint256",
              "name": "abstainVotes",
              "type": "uint256"
            },
            {
              "internalType": "uint256",
              "name": "startTime",
              "type": "uint256"
            },
            {
              "internalType": "uint256",
              "name": "endTime",
              "type": "uint256"
            },
            {
              "internalType": "uint256",
              "name": "executionTime",
              "type": "uint256"
            },
            {
              "internalType": "bool",
              "name": "executed",
              "type": "bool"
            },
            {
              "internalType": "bool",
              "name": "canceled",
              "type": "bool"
            },
            {
              "internalType": "bytes[]",
              "name": "calldatas",
              "type": "bytes[]"
            },
            {
              "internalType": "address[]",
              "name": "targets",
              "type": "address[]"
            }
          ],
          "internalType": "struct Governance.Proposal",
          "name": "",
          "type": "tuple"
        }
      ],
      "stateMutability": "view",
      "type": "function"
    },
    {
      "inputs": [
        {
          "internalType": "uint256",
          "name": "proposalId",
          "type": "uint256"
        }
      ],
      "name": "getProposalState",
      "outputs": [
        {
          "internalType": "enum Governance.ProposalState",
          "name": "",
          "type": "uint8"
        }
      ],
      "stateMutability": "view",
      "type": "function"
    },
    {
      "inputs": [
        {
          "internalType": "address",
          "name": "user",
          "type": "address"
        }
      ],
      "name": "getStake",
      "outputs": [
        {
          "components": [
            {
              "internalType": "uint256",
              "name": "amount",
              "type": "uint256"
            },
            {
              "internalType": "uint256",
              "name": "stakedAt",
              "type": "uint256"
            },
            {
              "internalType": "uint256",
              "name": "lockPeriod",
              "type": "uint256"
            }
          ],
          "internalType": "struct Governance.Stake",
          "name": "",
          "type": "tuple"
        }
      ],
      "stateMutability": "view",
      "type": "function"
    },
    {
      "inputs": [
        {
          "internalType": "uint256",
          "name": "proposalId",
          "type": "uint256"
        },
        {
          "internalType": "address",
          "name": "voter",
          "type": "address"
        }
      ],
      "name": "getVote",
      "outputs": [
        {
          "components": [
            {
              "internalType": "bool",
              "name": "hasVoted",
              "type": "bool"
            },
            {
              "internalType": "enum Governance.VoteType",
              "name": "voteType",
              "type": "uint8"
            },
            {
              "internalType": "uint256",
              "name": "weight",
              "type": "uint256"
            }
          ],
          "internalType": "struct Governance.Vote",
          "name": "",
          "type": "tuple"
        }
      ],
      "stateMutability": "view",
      "type": "function"
    },
    {
      "inputs": [
        {
          "internalType": "address",
          "name": "user",
          "type": "address"
        }
      ],
      "name": "getVotingPower",
      "outputs": [
        {
          "internalType": "uint256",
          "name": "",
          "type": "uint256"
        }
      ],
      "stateMutability": "view",
      "type": "function"
    },
    {
      "inputs": [],
      "name": "owner",
      "outputs": [
        {
          "internalType": "address",
          "name": "",
          "type": "address"
        }
      ],
      "stateMutability": "view",
      "type": "function"
    },
    {
      "inputs": [],
      "name": "proposalCount",
      "outputs": [
        {
          "internalType": "uint256",
          "name": "",
          "type": "uint256"
        }
      ],
      "stateMutability": "view",
      "type": "function"
    },
    {
      "inputs": [
        {
          "internalType": "uint256",
          "name": "",
          "type": "uint256"
        }
      ],
      "name": "proposals",
      "outputs": [
        {
          "internalType": "uint256",
          "name": "id",
          "type": "uint256"
        },
        {
          "internalType": "address",
          "name": "proposer",
          "type": "address"
        },
        {
          "internalType": "string",
          "name": "title",
          "type": "string"
        },
        {
          "internalType": "string",
          "name": "description",
          "type": "string"
        },
        {
          "internalType": "string",
          "name": "ipfsHash",
          "type": "string"
        },
        {
          "internalType": "enum Governance.ProposalType",
          "name": "proposalType",
          "type": "uint8"
        },
        {
          "internalType": "uint256",
          "name": "forVotes",
          "type": "uint256"
        },
        {
          "internalType": "uint256",
          "name": "againstVotes",
          "type": "uint256"
        },
        {
          "internalType": "uint256",
          "name": "abstainVotes",
          "type": "uint256"
        },
        {
          "internalType": "uint256",
          "name": "startTime",
          "type": "uint256"
        },
        {
          "internalType": "uint256",
          "name": "endTime",
          "type": "uint256"
        },
        {
          "internalType": "uint256",
          "name": "executionTime",
          "type": "uint256"
        },
        {
          "internalType": "bool",
          "name": "executed",
          "type": "bool"
        },
        {
          "internalType": "bool",
          "name": "canceled",
          "type": "bool"
        }
      ],
      "stateMutability": "view",
      "type": "function"
    },
    {
      "inputs": [
        {
          "internalType": "uint256",
          "name": "proposalId",
          "type": "uint256"
        }
      ],
      "name": "queueProposal",
      "outputs": [],
      "stateMutability": "nonpayable",
      "type": "function"
    },
    {
      "inputs": [],
      "name": "renounceOwnership",
      "outputs": [],
      "stateMutability": "nonpayable",
      "type": "function"
    },
    {
      "inputs": [
        {
          "internalType": "uint256",
          "name": "lockPeriod",
          "type": "uint256"
        }
      ],
      "name": "stake",
      "outputs": [],
      "stateMutability": "payable",
      "type": "function"
    },
    {
      "inputs": [
        {
          "internalType": "address",
          "name": "",
          "type": "address"
        }
      ],
      "name": "stakes",
      "outputs": [
        {
          "internalType": "uint256",
          "name": "amount",
          "type": "uint256"
        },
        {
          "internalType": "uint256",
          "name": "stakedAt",
          "type": "uint256"
        },
        {
          "internalType": "uint256",
          "name": "lockPeriod",
          "type": "uint256"
        }
      ],
      "stateMutability": "view",
      "type": "function"
    },
    {
      "inputs": [],
      "name": "totalStaked",
      "outputs": [
        {
          "internalType": "uint256",
          "name": "",
          "type": "uint256"
        }
      ],
      "stateMutability": "view",
      "type": "function"
    },
    {
      "inputs": [
        {
          "internalType": "address",
          "name": "newOwner",
          "type": "address"
        }
      ],
      "name": "transferOwnership",
      "outputs": [],
      "stateMutability": "nonpayable",
      "type": "function"
    },
    {
      "inputs": [
        {
          "internalType": "uint256",
          "name": "amount",
          "type": "uint256"
        }
      ],
      "name": "unstake",
      "outputs": [],
      "stateMutability": "nonpayable",
      "type": "function"
    },
    {
      "inputs": [
        {
          "internalType": "uint256",
          "name": "",
          "type": "uint256"
        },
        {
          "internalType": "address",
          "name": "",
          "type": "address"
        }
      ],
      "name": "votes",
      "outputs": [
        {
          "internalType": "bool",
          "name": "hasVoted",
          "type": "bool"
        },
        {
          "internalType": "enum Governance.VoteType",
          "name": "voteType",
          "type": "uint8"
        },
        {
          "internalType": "uint256",
          "name": "weight",
          "type": "uint256"
        }
      ],
      "stateMutability": "view",
      "type": "function"
    },
    {
      "inputs": [
        {
          "internalType": "address",
          "name": "",
          "type": "address"
        }
      ],
      "name": "votingPower",
      "outputs": [
        {
          "internalType": "uint256",
          "name": "",
          "type": "uint256"
        }
      ],
      "stateMutability": "view",
      "type": "function"
    }
  ],
  "bytecode": "0x60806040523480156200001157600080fd5b5033806200003957604051631e4fbdf760e01b81526000600482015260240160405180910390fd5b62000044816200004f565b50600180556200009f565b600080546001600160a01b038381166001600160a01b0319831681178455604051919092169283917f8be0079c531659141344cd1fd0a4f28419497f9722a3daafe3b4186f6b6457e09190a35050565b612b9280620000af6000396000f3fe60806040526004361061019c5760003560e01c80639080936f116100ec578063c7f758a81161008a578063da35c66411610064578063da35c66414610546578063e0a8f6f51461055c578063f2fde38b1461057c578063f71901971461059c57600080fd5b8063c7f758a8146104a7578063d23254b4146104d4578063d6159fe51461052f57600080fd5b8063b1610d7e116100c6578063b1610d7e14610400578063bb4d443614610417578063bc3f931f1461044d578063c07473f61461047a57600080fd5b80639080936f146103a057806394a14a34146103cd578063a694fc3a146103ed57600080fd5b80633e65164a11610159578063791f5d2311610133578063791f5d23146103035780637a76646014610320578063817b1cd2146103625780638da5cb5b1461037857600080fd5b80633e65164a146102b757806356781388146102ce578063715018a6146102ee57600080fd5b8063013cf08b146101a15780630d61b519146101e457806316934fc414610206578063208fb5901461025d5780632e17de781461028057806337f135d7146102a0575b600080fd5b3480156101ad57600080fd5b506101c16101bc366004612192565b6105bc565b6040516101db9e9d9c9b9a9998979695949392919061221b565b60405180910390f35b3480156101f057600080fd5b506102046101ff366004612192565b6107d2565b005b34801561021257600080fd5b506102426102213660046122ea565b60066020526000908152604090208054600182015460029092015490919083565b604080519384526020840192909252908201526060016101db565b34801561026957600080fd5b50610272600481565b6040519081526020016101db565b34801561028c57600080fd5b5061020461029b366004612192565b6109fe565b3480156102ac57600080fd5b506102726202a30081565b3480156102c357600080fd5b506102726212750081565b3480156102da57600080fd5b506102046102e936600461230c565b610bc4565b3480156102fa57600080fd5b50610204610e42565b34801561030f57600080fd5b5061027268056bc75e2d6310000081565b34801561032c57600080fd5b5061034061033b3660046122ea565b610e56565b60408051825181526020808401519082015291810151908201526060016101db565b34801561036e57600080fd5b5061027260035481565b34801561038457600080fd5b506000546040516001600160a01b0390911681526020016101db565b3480156103ac57600080fd5b506103c06103bb366004612192565b610ebc565b6040516101db9190612340565b3480156103d957600080fd5b506102046103e8366004612192565b61139f565b6102046103fb366004612192565b61141a565b34801561040c57600080fd5b5061027262093a8081565b34801561042357600080fd5b506102726104323660046122ea565b6001600160a01b031660009081526007602052604090205490565b34801561045957600080fd5b5061046d61046836600461235a565b611606565b6040516101db9190612396565b34801561048657600080fd5b506102726104953660046122ea565b60076020526000908152604090205481565b3480156104b357600080fd5b506104c76104c2366004612192565b61169f565b6040516101db919061245b565b3480156104e057600080fd5b506105206104ef36600461235a565b60056020908152600092835260408084209091529082529020805460019091015460ff808316926101009004169083565b6040516101db939291906125ac565b34801561053b57600080fd5b506102726201518081565b34801561055257600080fd5b5061027260025481565b34801561056857600080fd5b50610204610577366004612192565b611a70565b34801561058857600080fd5b506102046105973660046122ea565b611b94565b3480156105a857600080fd5b506102726105b73660046127c9565b611bcf565b60046020526000908152604090208054600182015460028301805492936001600160a01b03909216926105ee906128aa565b80601f016020809104026020016040519081016040528092919081815260200182805461061a906128aa565b80156106675780601f1061063c57610100808354040283529160200191610667565b820191906000526020600020905b81548152906001019060200180831161064a57829003601f168201915b50505050509080600301805461067c906128aa565b80601f01602080910402602001604051908101604052809291908181526020018280546106a8906128aa565b80156106f55780601f106106ca576101008083540402835291602001916106f5565b820191906000526020600020905b8154815290600101906020018083116106d857829003601f168201915b50505050509080600401805461070a906128aa565b80601f0160208091040260200160405190810160405280929190818152602001828054610736906128aa565b80156107835780601f1061075857610100808354040283529160200191610783565b820191906000526020600020905b81548152906001019060200180831161076657829003601f168201915b50505060058401546006850154600786015460088701546009880154600a890154600b8a0154600c909a0154989960ff968716999598509396509194909391929180821691610100909104168e565b6107da611f2d565b60006107e582610ebc565b905060058160078111156107fb576107fb6121f1565b1461084d5760405162461bcd60e51b815260206004820152601760248201527f4e6f7420726561647920666f7220657865637574696f6e00000000000000000060448201526064015b60405180910390fd5b6000828152600460205260409020600b01544210156108a45760405162461bcd60e51b8152602060048201526013602482015272151a5b595b1bd8dac81b9bdd081c185cdcd959606a1b6044820152606401610844565b6000828152600460205260408120600c8101805460ff19166001179055905b600e8201548110156109c457600082600e0182815481106108e6576108e66128e4565b600091825260209091200154600d840180546001600160a01b039092169184908110610914576109146128e4565b9060005260206000200160405161092b91906128fa565b6000604051808303816000865af19150503d8060008114610968576040519150601f19603f3d011682016040523d82523d6000602084013e61096d565b606091505b50509050806109b15760405162461bcd60e51b815260206004820152601060248201526f115e1958dd5d1a5bdb8819985a5b195960821b6044820152606401610844565b50806109bc81612986565b9150506108c3565b5060405183907f712ae1383f79ac853f8d882153778e0260ef8f03b504e2866e0593e04d2b291f90600090a250506109fb60018055565b50565b610a06611f2d565b3360009081526006602052604090208054821115610a5b5760405162461bcd60e51b8152602060048201526012602482015271496e73756666696369656e74207374616b6560701b6044820152606401610844565b80600201548160010154610a6f919061299f565b421015610ab45760405162461bcd60e51b8152602060048201526013602482015272151bdad95b9cc81cdd1a5b1b081b1bd8dad959606a1b6044820152606401610844565b60006301e13380826002015461012c610acd91906129b2565b610ad791906129c9565b610ae290606461299f565b905060006064610af283866129b2565b610afc91906129c9565b905083836000016000828254610b1291906129eb565b90915550503360009081526007602052604081208054839290610b369084906129eb565b925050819055508360036000828254610b4f91906129eb565b9091555050604051339085156108fc029086906000818181858888f19350505050158015610b81573d6000803e3d6000fd5b5060405184815233907f0f5bb82176feb1b5e747e28471aa92156a04d9f3ab9f45f28e2d704232b93f75906020015b60405180910390a25050506109fb60018055565b6001610bcf83610ebc565b6007811115610be057610be06121f1565b14610c215760405162461bcd60e51b8152602060048201526011602482015270566f74696e67206e6f742061637469766560781b6044820152606401610844565b600082815260056020908152604080832033845290915290205460ff1615610c7b5760405162461bcd60e51b815260206004820152600d60248201526c105b1c9958591e481d9bdd1959609a1b6044820152606401610844565b33600090815260076020526040902054610cc95760405162461bcd60e51b815260206004820152600f60248201526e2737903b37ba34b733903837bbb2b960891b6044820152606401610844565b33600090815260076020908152604091829020548251606081019093526001835291908101836002811115610d0057610d006121f1565b815260209081018390526000858152600582526040808220338352835290208251815490151560ff19821681178355928401519192839161ff001990911661ffff1990911617610100836002811115610d5b57610d5b6121f1565b0217905550604091820151600191820155600085815260046020529190912090836002811115610d8d57610d8d6121f1565b03610db15781816006016000828254610da6919061299f565b90915550610df89050565b6000836002811115610dc557610dc56121f1565b03610dde5781816007016000828254610da6919061299f565b81816008016000828254610df2919061299f565b90915550505b336001600160a01b0316847fb83d25c6a5d258561330739951487acb4bd09ba5190b5d32c4f261817d9067928585604051610e349291906129fe565b60405180910390a350505050565b610e4a611f57565b610e546000611f84565b565b610e7a60405180606001604052806000815260200160008152602001600081525090565b506001600160a01b0316600090815260066020908152604091829020825160608101845281548152600182015492810192909252600201549181019190915290565b60008181526004602090815260408083208151610200810183528154815260018201546001600160a01b03169381019390935260028101805485949384019190610f05906128aa565b80601f0160208091040260200160405190810160405280929190818152602001828054610f31906128aa565b8015610f7e5780601f10610f5357610100808354040283529160200191610f7e565b820191906000526020600020905b815481529060010190602001808311610f6157829003601f168201915b50505050508152602001600382018054610f97906128aa565b80601f0160208091040260200160405190810160405280929190818152602001828054610fc3906128aa565b80156110105780601f10610fe557610100808354040283529160200191611010565b820191906000526020600020905b815481529060010190602001808311610ff357829003601f168201915b50505050508152602001600482018054611029906128aa565b80601f0160208091040260200160405190810160405280929190818152602001828054611055906128aa565b80156110a25780601f10611077576101008083540402835291602001916110a2565b820191906000526020600020905b81548152906001019060200180831161108557829003601f168201915b5050509183525050600582015460209091019060ff1660048111156110c9576110c96121f1565b60048111156110da576110da6121f1565b8152600682015460208083019190915260078301546040808401919091526008840154606084015260098401546080840152600a84015460a0840152600b84015460c0840152600c84015460ff808216151560e08601526101009182900416151590840152600d8401805482518185028101850190935280835261012090940193919290919060009084015b82821015611212578382906000526020600020018054611185906128aa565b80601f01602080910402602001604051908101604052809291908181526020018280546111b1906128aa565b80156111fe5780601f106111d3576101008083540402835291602001916111fe565b820191906000526020600020905b8154815290600101906020018083116111e157829003601f168201915b505050505081526020019060010190611166565b505050508152602001600e820180548060200260200160405190810160405280929190818152602001828054801561127357602002820191906000526020600020905b81546001600160a01b03168152600190910190602001808311611255575b5050505050815250509050806101a00151156112925750600292915050565b806101800151156112a65750600692915050565b8061012001514210156112bc5750600092915050565b80610140015142116112d15750600192915050565b60008161010001518260e001518360c001516112ed919061299f565b6112f7919061299f565b905060006064600460035461130c91906129b2565b61131691906129c9565b90508082108061132e57508260e001518360c0015111155b1561133e57506003949350505050565b82610160015160000361135657506004949350505050565b82610160015142101561136e57506005949350505050565b62127500836101600151611382919061299f565b42111561139457506007949350505050565b506005949350505050565b60046113aa82610ebc565b60078111156113bb576113bb6121f1565b146113f85760405162461bcd60e51b815260206004820152600d60248201526c139bdd081cdd58d8d959591959609a1b6044820152606401610844565b6114056202a3004261299f565b600091825260046020526040909120600b0155565b611422611f2d565b600034116114725760405162461bcd60e51b815260206004820152601d60248201527f416d6f756e74206d7573742062652067726561746572207468616e20300000006044820152606401610844565b62093a808110156114c55760405162461bcd60e51b815260206004820152601960248201527f4d696e206c6f636b20706572696f6420697320372064617973000000000000006044820152606401610844565b6301e133808111156115195760405162461bcd60e51b815260206004820152601b60248201527f4d6178206c6f636b20706572696f6420697320333635206461797300000000006044820152606401610844565b336000908152600660205260408120906301e1338061153a8461012c6129b2565b61154491906129c9565b61154f90606461299f565b90506000606461155f83346129b2565b61156991906129c9565b90503483600001600082825461157f919061299f565b90915550504260018401556002830184905533600090815260076020526040812080548392906115b090849061299f565b9250508190555034600360008282546115c9919061299f565b9091555050604080513481526020810186905233917f1449c6dd7851abc30abf37f57715f492010519147cc2652fbc38202c18a6ee909101610bb0565b604080516060810182526000808252602082018190529181019190915260008381526005602090815260408083206001600160a01b0386168452825291829020825160608101909352805460ff808216151585529192840191610100909104166002811115611677576116776121f1565b6002811115611688576116886121f1565b815260200160018201548152505090505b92915050565b6116a7611fd4565b6000828152600460209081526040918290208251610200810184528154815260018201546001600160a01b03169281019290925260028101805492939192918401916116f2906128aa565b80601f016020809104026020016040519081016040528092919081815260200182805461171e906128aa565b801561176b5780601f106117405761010080835404028352916020019161176b565b820191906000526020600020905b81548152906001019060200180831161174e57829003601f168201915b50505050508152602001600382018054611784906128aa565b80601f01602080910402602001604051908101604052809291908181526020018280546117b0906128aa565b80156117fd5780601f106117d2576101008083540402835291602001916117fd565b820191906000526020600020905b8154815290600101906020018083116117e057829003601f168201915b50505050508152602001600482018054611816906128aa565b80601f0160208091040260200160405190810160405280929190818152602001828054611842906128aa565b801561188f5780601f106118645761010080835404028352916020019161188f565b820191906000526020600020905b81548152906001019060200180831161187257829003601f168201915b5050509183525050600582015460209091019060ff1660048111156118b6576118b66121f1565b60048111156118c7576118c76121f1565b8152600682015460208083019190915260078301546040808401919091526008840154606084015260098401546080840152600a84015460a0840152600b84015460c0840152600c84015460ff808216151560e08601526101009182900416151590840152600d8401805482518185028101850190935280835261012090940193919290919060009084015b828210156119ff578382906000526020600020018054611972906128aa565b80601f016020809104026020016040519081016040528092919081815260200182805461199e906128aa565b80156119eb5780601f106119c0576101008083540402835291602001916119eb565b820191906000526020600020905b8154815290600101906020018083116119ce57829003601f168201915b505050505081526020019060010190611953565b505050508152602001600e8201805480602002602001604051908101604052809291908181526020018280548015611a6057602002820191906000526020600020905b81546001600160a01b03168152600190910190602001808311611a42575b5050505050815250509050919050565b600081815260046020526040902060018101546001600160a01b03163314611aca5760405162461bcd60e51b815260206004820152600d60248201526c27b7363c90383937b837b9b2b960991b6044820152606401610844565b600c81015460ff1615611b125760405162461bcd60e51b815260206004820152601060248201526f105b1c9958591e48195e1958dd5d195960821b6044820152606401610844565b80600a01544210611b545760405162461bcd60e51b815260206004820152600c60248201526b159bdd1a5b99c8195b99195960a21b6044820152606401610844565b600c8101805461ff00191661010017905560405182907f789cf55be980739dad1d0699b93b58e806b51c9d96619bfa8fe0a28abaa7b30c90600090a25050565b611b9c611f57565b6001600160a01b038116611bc657604051631e4fbdf760e01b815260006004820152602401610844565b6109fb81611f84565b3360009081526007602052604081205468056bc75e2d631000001115611c375760405162461bcd60e51b815260206004820152601960248201527f496e73756666696369656e7420766f74696e6720706f776572000000000000006044820152606401610844565b6000875111611c795760405162461bcd60e51b815260206004820152600e60248201526d151a5d1b19481c995c5d5a5c995960921b6044820152606401610844565b8151835114611cc25760405162461bcd60e51b8152602060048201526015602482015274082e4e4c2f240d8cadccee8d040dad2e6dac2e8c6d605b1b6044820152606401610844565b60028054906000611cd283612986565b90915550506002546000611ce9620151804261299f565b90506000611cfa62093a808361299f565b9050604051806102000160405280848152602001336001600160a01b031681526020018b81526020018a8152602001898152602001886004811115611d4157611d416121f1565b8152600060208083018290526040808401839052606084018390526080840187905260a0840186905260c0840183905260e08401839052610100840183905261012084018a90526101409093018a9052868252600481529082902083518155908301516001820180546001600160a01b0319166001600160a01b03909216919091179055908201516002820190611dd89082612a68565b5060608201516003820190611ded9082612a68565b5060808201516004820190611e029082612a68565b5060a082015160058201805460ff19166001836004811115611e2657611e266121f1565b021790555060c0820151600682015560e082015160078201556101008083015160088301556101208301516009830155610140830151600a830155610160830151600b830155610180830151600c830180546101a086015161ffff1990911692151561ff001916929092179115159092021790556101c08201518051611eb691600d84019160209091019061206f565b506101e08201518051611ed391600e8401916020909101906120c5565b50905050336001600160a01b0316837ffd3a4372829eebfa1fcdd5a6e4bbbeb5b140261c36928520367a19665a17a9968c8a8686604051611f179493929190612b28565b60405180910390a3509098975050505050505050565b600260015403611f5057604051633ee5aeb560e01b815260040160405180910390fd5b6002600155565b6000546001600160a01b03163314610e545760405163118cdaa760e01b8152336004820152602401610844565b600080546001600160a01b038381166001600160a01b0319831681178455604051919092169283917f8be0079c531659141344cd1fd0a4f28419497f9722a3daafe3b4186f6b6457e09190a35050565b6040518061020001604052806000815260200160006001600160a01b031681526020016060815260200160608152602001606081526020016000600481111561201f5761201f6121f1565b815260200160008152602001600081526020016000815260200160008152602001600081526020016000815260200160001515815260200160001515815260200160608152602001606081525090565b8280548282559060005260206000209081019282156120b5579160200282015b828111156120b557825182906120a59082612a68565b509160200191906001019061208f565b506120c1929150612126565b5090565b82805482825590600052602060002090810192821561211a579160200282015b8281111561211a57825182546001600160a01b0319166001600160a01b039091161782556020909201916001909101906120e5565b506120c1929150612143565b808211156120c157600061213a8282612158565b50600101612126565b5b808211156120c15760008155600101612144565b508054612164906128aa565b6000825580601f10612174575050565b601f0160209004906000526020600020908101906109fb9190612143565b6000602082840312156121a457600080fd5b5035919050565b6000815180845260005b818110156121d1576020818501810151868301820152016121b5565b506000602082860101526020601f19601f83011685010191505092915050565b634e487b7160e01b600052602160045260246000fd5b60058110612217576122176121f1565b9052565b8e81526001600160a01b038e1660208201526101c0604082015260006122456101c083018f6121ab565b8281036060840152612257818f6121ab565b9050828103608084015261226b818e6121ab565b91505061227b60a083018c612207565b8960c08301528860e0830152876101008301528661012083015285610140830152846101608301526122b261018083018515159052565b8215156101a08301529f9e505050505050505050505050505050565b80356001600160a01b03811681146122e557600080fd5b919050565b6000602082840312156122fc57600080fd5b612305826122ce565b9392505050565b6000806040838503121561231f57600080fd5b8235915060208301356003811061233557600080fd5b809150509250929050565b6020810160088310612354576123546121f1565b91905290565b6000806040838503121561236d57600080fd5b8235915061237d602084016122ce565b90509250929050565b60038110612217576122176121f1565b81511515815260208083015160608301916123b390840182612386565b50604092830151919092015290565b600081518084526020808501808196508360051b8101915082860160005b8581101561240a5782840389526123f88483516121ab565b988501989350908401906001016123e0565b5091979650505050505050565b600081518084526020808501945080840160005b838110156124505781516001600160a01b03168752958201959082019060010161242b565b509495945050505050565b60208152815160208201526000602083015161248260408401826001600160a01b03169052565b50604083015161020080606085015261249f6102208501836121ab565b91506060850151601f19808685030160808701526124bd84836121ab565b935060808701519150808685030160a08701526124da84836121ab565b935060a087015191506124f060c0870183612207565b60c087015160e087810191909152870151610100808801919091528701516101208088019190915287015161014080880191909152870151610160808801919091528701516101808088019190915287015191506101a06125548188018415159052565b87015191506101c06125698782018415159052565b808801519250506101e081878603018188015261258685846123c2565b9088015187820390920184880152935090506125a28382612417565b9695505050505050565b8315158152606081016125c26020830185612386565b826040830152949350505050565b634e487b7160e01b600052604160045260246000fd5b604051601f8201601f1916810167ffffffffffffffff8111828210171561260f5761260f6125d0565b604052919050565b600067ffffffffffffffff831115612631576126316125d0565b612644601f8401601f19166020016125e6565b905082815283838301111561265857600080fd5b828260208301376000602084830101529392505050565b600082601f83011261268057600080fd5b61230583833560208501612617565b8035600581106122e557600080fd5b600067ffffffffffffffff8211156126b8576126b86125d0565b5060051b60200190565b600082601f8301126126d357600080fd5b813560206126e86126e38361269e565b6125e6565b82815260059290921b8401810191818101908684111561270757600080fd5b8286015b848110156127295761271c816122ce565b835291830191830161270b565b509695505050505050565b600082601f83011261274557600080fd5b813560206127556126e38361269e565b82815260059290921b8401810191818101908684111561277457600080fd5b8286015b8481101561272957803567ffffffffffffffff8111156127985760008081fd5b8701603f810189136127aa5760008081fd5b6127bb898683013560408401612617565b845250918301918301612778565b60008060008060008060c087890312156127e257600080fd5b863567ffffffffffffffff808211156127fa57600080fd5b6128068a838b0161266f565b9750602089013591508082111561281c57600080fd5b6128288a838b0161266f565b9650604089013591508082111561283e57600080fd5b61284a8a838b0161266f565b955061285860608a0161268f565b9450608089013591508082111561286e57600080fd5b61287a8a838b016126c2565b935060a089013591508082111561289057600080fd5b5061289d89828a01612734565b9150509295509295509295565b600181811c908216806128be57607f821691505b6020821081036128de57634e487b7160e01b600052602260045260246000fd5b50919050565b634e487b7160e01b600052603260045260246000fd5b6000808354612908816128aa565b60018281168015612920576001811461293557612964565b60ff1984168752821515830287019450612964565b8760005260208060002060005b8581101561295b5781548a820152908401908201612942565b50505082870194505b50929695505050505050565b634e487b7160e01b600052601160045260246000fd5b60006001820161299857612998612970565b5060010190565b8082018082111561169957611699612970565b808202811582820484141761169957611699612970565b6000826129e657634e487b7160e01b600052601260045260246000fd5b500490565b8181038181111561169957611699612970565b60408101612a0c8285612386565b8260208301529392505050565b601f821115612a6357600081815260208120601f850160051c81016020861015612a405750805b601f850160051c820191505b81811015612a5f57828155600101612a4c565b5050505b505050565b815167ffffffffffffffff811115612a8257612a826125d0565b612a9681612a9084546128aa565b84612a19565b602080601f831160018114612acb5760008415612ab35750858301515b600019600386901b1c1916600185901b178555612a5f565b600085815260208120601f198616915b82811015612afa57888601518255948401946001909101908401612adb565b5085821015612b185787850151600019600388901b60f8161c191681555b5050505050600190811b01905550565b608081526000612b3b60808301876121ab565b9050612b4a6020830186612207565b6040820193909352606001529291505056fea264697066735822122075d1061337abd30a227381793e81844e196437e7a32070c321e56f44c28ebbdf64736f6c63430008140033",
  "linkReferences": {},
  "deployedLinkReferences": {}
}