{
  "_format": "hh-sol-artifact-1",
  "contractName": "UserRegistry",
  "sourceName": "contracts/UserRegistry.sol",
  "abi": [
    {
      "inputs": [],
      "stateMutability": "nonpayable",
      "type": "constructor"
    },
    {
      "inputs": [
        {
          "internalType": "address",
          "name": "owner",
          "type": "address"
        }
      ],
      "name": "OwnableInvalidOwner",
      "type": "error"
    },
    {
      "inputs": [
        {
          "internalType": "address",
          "name": "account",
          "type": "address"
        }
      ],
      "name": "OwnableUnauthorizedAccount",
      "type": "error"
    },
    {
      "inputs": [],
      "name": "ReentrancyGuardReentrantCall",
      "type": "error"
    },
    {
      "anonymous": false,
      "inputs": [
        {
          "indexed": true,
          "internalType": "address",
          "name": "developer",
          "type": "address"
        },
        {
          "indexed": false,
          "internalType": "uint256",
          "name": "modelsUploaded",
          "type": "uint256"
        },
        {
          "indexed": false,
          "internalType": "uint256",
          "name": "totalSales",
          "type": "uint256"
        }
      ],
      "name": "DeveloperStatsUpdated",
      "type": "event"
    },
    {
      "anonymous": false,
      "inputs": [
        {
          "indexed": true,
          "internalType": "address",
          "name": "previousOwner",
          "type": "address"
        },
        {
          "indexed": true,
          "internalType": "address",
          "name": "newOwner",
          "type": "address"
        }
      ],
      "name": "OwnershipTransferred",
      "type": "event"
    },
    {
      "anonymous": false,
      "inputs": [
        {
          "indexed": true,
          "internalType": "address",
          "name": "user",
          "type": "address"
        },
        {
          "indexed": false,
          "internalType": "string",
          "name": "newIpfsHash",
          "type": "string"
        },
        {
          "indexed": false,
          "internalType": "uint256",
          "name": "timestamp",
          "type": "uint256"
        }
      ],
      "name": "ProfileUpdated",
      "type": "event"
    },
    {
      "anonymous": false,
      "inputs": [
        {
          "indexed": true,
          "internalType": "address",
          "name": "user",
          "type": "address"
        },
        {
          "indexed": false,
          "internalType": "uint256",
          "name": "newReputation",
          "type": "uint256"
        },
        {
          "indexed": false,
          "internalType": "uint256",
          "name": "timestamp",
          "type": "uint256"
        }
      ],
      "name": "ReputationUpdated",
      "type": "event"
    },
    {
      "anonymous": false,
      "inputs": [
        {
          "indexed": true,
          "internalType": "address",
          "name": "user",
          "type": "address"
        },
        {
          "indexed": false,
          "internalType": "enum UserRegistry.UserRole",
          "name": "newRole",
          "type": "uint8"
        },
        {
          "indexed": false,
          "internalType": "uint256",
          "name": "timestamp",
          "type": "uint256"
        }
      ],
      "name": "RoleUpgraded",
      "type": "event"
    },
    {
      "anonymous": false,
      "inputs": [
        {
          "indexed": true,
          "internalType": "address",
          "name": "user",
          "type": "address"
        },
        {
          "indexed": false,
          "internalType": "enum UserRegistry.UserRole",
          "name": "role",
          "type": "uint8"
        },
        {
          "indexed": false,
          "internalType": "string",
          "name": "ipfsHash",
          "type": "string"
        },
        {
          "indexed": false,
          "internalType": "uint256",
          "name": "timestamp",
          "type": "uint256"
        }
      ],
      "name": "UserRegistered",
      "type": "event"
    },
    {
      "anonymous": false,
      "inputs": [
        {
          "indexed": true,
          "internalType": "address",
          "name": "validator",
          "type": "address"
        },
        {
          "indexed": false,
          "internalType": "uint256",
          "name": "timestamp",
          "type": "uint256"
        }
      ],
      "name": "ValidatorApproved",
      "type": "event"
    },
    {
      "anonymous": false,
      "inputs": [
        {
          "indexed": true,
          "internalType": "address",
          "name": "validator",
          "type": "address"
        },
        {
          "indexed": false,
          "internalType": "uint256",
          "name": "amount",
          "type": "uint256"
        },
        {
          "indexed": false,
          "internalType": "uint256",
          "name": "timestamp",
          "type": "uint256"
        }
      ],
      "name": "ValidatorStaked",
      "type": "event"
    },
    {
      "anonymous": false,
      "inputs": [
        {
          "indexed": true,
          "internalType": "address",
          "name": "validator",
          "type": "address"
        },
        {
          "indexed": false,
          "internalType": "uint256",
          "name": "amount",
          "type": "uint256"
        },
        {
          "indexed": false,
          "internalType": "uint256",
          "name": "timestamp",
          "type": "uint256"
        }
      ],
      "name": "ValidatorUnstaked",
      "type": "event"
    },
    {
      "inputs": [
        {
          "internalType": "address",
          "name": "_validator",
          "type": "address"
        }
      ],
      "name": "approveValidator",
      "outputs": [],
      "stateMutability": "nonpayable",
      "type": "function"
    },
    {
      "inputs": [
        {
          "internalType": "uint256",
          "name": "",
          "type": "uint256"
        }
      ],
      "name": "developerList",
      "outputs": [
        {
          "internalType": "address",
          "name": "",
          "type": "address"
        }
      ],
      "stateMutability": "view",
      "type": "function"
    },
    {
      "inputs": [
        {
          "internalType": "address",
          "name": "",
          "type": "address"
        }
      ],
      "name": "developers",
      "outputs": [
        {
          "internalType": "uint256",
          "name": "modelsUploaded",
          "type": "uint256"
        },
        {
          "internalType": "uint256",
          "name": "totalSales",
          "type": "uint256"
        },
        {
          "internalType": "uint256",
          "name": "totalRatings",
          "type": "uint256"
        },
        {
          "internalType": "uint256",
          "name": "ratingsCount",
          "type": "uint256"
        }
      ],
      "stateMutability": "view",
      "type": "function"
    },
    {
      "inputs": [
        {
          "internalType": "address",
          "name": "_developer",
          "type": "address"
        }
      ],
      "name": "getDeveloperInfo",
      "outputs": [
        {
          "internalType": "uint256",
          "name": "modelsUploaded",
          "type": "uint256"
        },
        {
          "internalType": "uint256",
          "name": "totalSales",
          "type": "uint256"
        },
        {
          "internalType": "uint256",
          "name": "averageRating",
          "type": "uint256"
        }
      ],
      "stateMutability": "view",
      "type": "function"
    },
    {
      "inputs": [],
      "name": "getTotalDevelopers",
      "outputs": [
        {
          "internalType": "uint256",
          "name": "",
          "type": "uint256"
        }
      ],
      "stateMutability": "view",
      "type": "function"
    },
    {
      "inputs": [],
      "name": "getTotalUsers",
      "outputs": [
        {
          "internalType": "uint256",
          "name": "",
          "type": "uint256"
        }
      ],
      "stateMutability": "view",
      "type": "function"
    },
    {
      "inputs": [],
      "name": "getTotalValidators",
      "outputs": [
        {
          "internalType": "uint256",
          "name": "",
          "type": "uint256"
        }
      ],
      "stateMutability": "view",
      "type": "function"
    },
    {
      "inputs": [
        {
          "internalType": "address",
          "name": "_user",
          "type": "address"
        }
      ],
      "name": "getUserProfile",
      "outputs": [
        {
          "internalType": "string",
          "name": "ipfsHash",
          "type": "string"
        },
        {
          "internalType": "enum UserRegistry.UserRole",
          "name": "primaryRole",
          "type": "uint8"
        },
        {
          "internalType": "bool",
          "name": "isDeveloper",
          "type": "bool"
        },
        {
          "internalType": "bool",
          "name": "isValidator",
          "type": "bool"
        },
        {
          "internalType": "uint256",
          "name": "registeredAt",
          "type": "uint256"
        },
        {
          "internalType": "uint256",
          "name": "reputation",
          "type": "uint256"
        },
        {
          "internalType": "uint256",
          "name": "totalTransactions",
          "type": "uint256"
        },
        {
          "internalType": "bool",
          "name": "isActive",
          "type": "bool"
        }
      ],
      "stateMutability": "view",
      "type": "function"
    },
    {
      "inputs": [
        {
          "internalType": "address",
          "name": "_validator",
          "type": "address"
        }
      ],
      "name": "getValidatorInfo",
      "outputs": [
        {
          "internalType": "uint256",
          "name": "stakedAmount",
          "type": "uint256"
        },
        {
          "internalType": "uint256",
          "name": "validationsCount",
          "type": "uint256"
        },
        {
          "internalType": "uint256",
          "name": "successfulValidations",
          "type": "uint256"
        },
        {
          "internalType": "bool",
          "name": "isApproved",
          "type": "bool"
        }
      ],
      "stateMutability": "view",
      "type": "function"
    },
    {
      "inputs": [
        {
          "internalType": "address",
          "name": "_developer",
          "type": "address"
        }
      ],
      "name": "incrementModelsUploaded",
      "outputs": [],
      "stateMutability": "nonpayable",
      "type": "function"
    },
    {
      "inputs": [
        {
          "internalType": "address",
          "name": "_user",
          "type": "address"
        }
      ],
      "name": "incrementTransactions",
      "outputs": [],
      "stateMutability": "nonpayable",
      "type": "function"
    },
    {
      "inputs": [
        {
          "internalType": "address",
          "name": "_user",
          "type": "address"
        }
      ],
      "name": "isUserRegistered",
      "outputs": [
        {
          "internalType": "bool",
          "name": "",
          "type": "bool"
        }
      ],
      "stateMutability": "view",
      "type": "function"
    },
    {
      "inputs": [],
      "name": "owner",
      "outputs": [
        {
          "internalType": "address",
          "name": "",
          "type": "address"
        }
      ],
      "stateMutability": "view",
      "type": "function"
    },
    {
      "inputs": [
        {
          "internalType": "address",
          "name": "_validator",
          "type": "address"
        },
        {
          "internalType": "bool",
          "name": "_successful",
          "type": "bool"
        }
      ],
      "name": "recordValidation",
      "outputs": [],
      "stateMutability": "nonpayable",
      "type": "function"
    },
    {
      "inputs": [
        {
          "internalType": "string",
          "name": "_ipfsHash",
          "type": "string"
        },
        {
          "internalType": "enum UserRegistry.UserRole",
          "name": "_role",
          "type": "uint8"
        }
      ],
      "name": "registerUser",
      "outputs": [],
      "stateMutability": "nonpayable",
      "type": "function"
    },
    {
      "inputs": [],
      "name": "renounceOwnership",
      "outputs": [],
      "stateMutability": "nonpayable",
      "type": "function"
    },
    {
      "inputs": [
        {
          "internalType": "uint256",
          "name": "_minStake",
          "type": "uint256"
        }
      ],
      "name": "setValidatorMinStake",
      "outputs": [],
      "stateMutability": "nonpayable",
      "type": "function"
    },
    {
      "inputs": [],
      "name": "stakeAsValidator",
      "outputs": [],
      "stateMutability": "payable",
      "type": "function"
    },
    {
      "inputs": [
        {
          "internalType": "address",
          "name": "newOwner",
          "type": "address"
        }
      ],
      "name": "transferOwnership",
      "outputs": [],
      "stateMutability": "nonpayable",
      "type": "function"
    },
    {
      "inputs": [
        {
          "internalType": "uint256",
          "name": "_amount",
          "type": "uint256"
        }
      ],
      "name": "unstakeValidator",
      "outputs": [],
      "stateMutability": "nonpayable",
      "type": "function"
    },
    {
      "inputs": [
        {
          "internalType": "address",
          "name": "_developer",
          "type": "address"
        },
        {
          "internalType": "uint256",
          "name": "_saleAmount",
          "type": "uint256"
        },
        {
          "internalType": "uint256",
          "name": "_rating",
          "type": "uint256"
        }
      ],
      "name": "updateDeveloperStats",
      "outputs": [],
      "stateMutability": "nonpayable",
      "type": "function"
    },
    {
      "inputs": [
        {
          "internalType": "string",
          "name": "_newIpfsHash",
          "type": "string"
        }
      ],
      "name": "updateProfile",
      "outputs": [],
      "stateMutability": "nonpayable",
      "type": "function"
    },
    {
      "inputs": [
        {
          "internalType": "address",
          "name": "_user",
          "type": "address"
        },
        {
          "internalType": "uint256",
          "name": "_newReputation",
          "type": "uint256"
        }
      ],
      "name": "updateReputation",
      "outputs": [],
      "stateMutability": "nonpayable",
      "type": "function"
    },
    {
      "inputs": [
        {
          "internalType": "string",
          "name": "_newIpfsHash",
          "type": "string"
        }
      ],
      "name": "upgradeToDeveloper",
      "outputs": [],
      "stateMutability": "nonpayable",
      "type": "function"
    },
    {
      "inputs": [
        {
          "internalType": "uint256",
          "name": "",
          "type": "uint256"
        }
      ],
      "name": "userList",
      "outputs": [
        {
          "internalType": "address",
          "name": "",
          "type": "address"
        }
      ],
      "stateMutability": "view",
      "type": "function"
    },
    {
      "inputs": [
        {
          "internalType": "address",
          "name": "",
          "type": "address"
        }
      ],
      "name": "users",
      "outputs": [
        {
          "internalType": "string",
          "name": "ipfsHash",
          "type": "string"
        },
        {
          "internalType": "enum UserRegistry.UserRole",
          "name": "primaryRole",
          "type": "uint8"
        },
        {
          "internalType": "bool",
          "name": "isDeveloper",
          "type": "bool"
        },
        {
          "internalType": "bool",
          "name": "isValidator",
          "type": "bool"
        },
        {
          "internalType": "uint256",
          "name": "registeredAt",
          "type": "uint256"
        },
        {
          "internalType": "uint256",
          "name": "reputation",
          "type": "uint256"
        },
        {
          "internalType": "uint256",
          "name": "totalTransactions",
          "type": "uint256"
        },
        {
          "internalType": "bool",
          "name": "isActive",
          "type": "bool"
        }
      ],
      "stateMutability": "view",
      "type": "function"
    },
    {
      "inputs": [
        {
          "internalType": "uint256",
          "name": "",
          "type": "uint256"
        }
      ],
      "name": "validatorList",
      "outputs": [
        {
          "internalType": "address",
          "name": "",
          "type": "address"
        }
      ],
      "stateMutability": "view",
      "type": "function"
    },
    {
      "inputs": [],
      "name": "validatorMinStake",
      "outputs": [
        {
          "internalType": "uint256",
          "name": "",
          "type": "uint256"
        }
      ],
      "stateMutability": "view",
      "type": "function"
    },
    {
      "inputs": [
        {
          "internalType": "address",
          "name": "",
          "type": "address"
        }
      ],
      "name": "validators",
      "outputs": [
        {
          "internalType": "uint256",
          "name": "stakedAmount",
          "type": "uint256"
        },
        {
          "internalType": "uint256",
          "name": "validationsCount",
          "type": "uint256"
        },
        {
          "internalType": "uint256",
          "name": "successfulValidations",
          "type": "uint256"
        },
        {
          "internalType": "bool",
          "name": "isApproved",
          "type": "bool"
        }
      ],
      "stateMutability": "view",
      "type": "function"
    }
  ],
  "bytecode": "0x608060405267016345785d8a000060085534801561001c57600080fd5b50338061004357604051631e4fbdf760e01b81526000600482015260240160405180910390fd5b61004c81610056565b50600180556100a6565b600080546001600160a01b038381166001600160a01b0319831681178455604051919092169283917f8be0079c531659141344cd1fd0a4f28419497f9722a3daafe3b4186f6b6457e09190a35050565b611f8c806100b56000396000f3fe6080604052600436106101c15760003560e01c80639be572f6116100f7578063c681aaa511610095578063e0a3b0a511610064578063e0a3b0a5146105db578063f2fde38b146105f0578063f5c91a0814610610578063fa52c7d81461063057600080fd5b8063c681aaa514610573578063d9574f1414610593578063dad64ff5146105b3578063dbd9a031146105bb57600080fd5b8063acac709c116100d1578063acac709c146104d8578063afbe2655146104f8578063b048e05614610518578063c342102c1461053857600080fd5b80639be572f6146104835780639f4216e814610498578063a87430ba146104b857600080fd5b8063295912df11610164578063715018a61161013e578063715018a6146103745780638a11d7c9146103895780638da5cb5b1461041d578063987ee1561461044f57600080fd5b8063295912df146102dd578063338e12eb146102f257806361fd5c201461031257600080fd5b8063163f7522116101a0578063163f7522146102315780631732334d1461027d5780631d11308e1461029d578063293ba15c146102bd57600080fd5b80629299e3146101c65780630cf3b3aa146101e85780631538faf214610208575b600080fd5b3480156101d257600080fd5b506101e66101e1366004611a69565b610677565b005b3480156101f457600080fd5b506101e6610203366004611ac2565b610758565b34801561021457600080fd5b5061021e60085481565b6040519081526020015b60405180910390f35b34801561023d57600080fd5b5061026d61024c366004611af5565b6001600160a01b031660009081526002602052604090206005015460ff1690565b6040519015158152602001610228565b34801561028957600080fd5b506101e6610298366004611b17565b6108c8565b3480156102a957600080fd5b506101e66102b8366004611b30565b610ac3565b3480156102c957600080fd5b506101e66102d8366004611b17565b610b6f565b3480156102e957600080fd5b5060065461021e565b3480156102fe57600080fd5b506101e661030d366004611b6c565b610b7c565b34801561031e57600080fd5b5061035461032d366004611af5565b60046020526000908152604090208054600182015460028301546003909301549192909184565b604080519485526020850193909352918301526060820152608001610228565b34801561038057600080fd5b506101e6610f3c565b34801561039557600080fd5b506103fb6103a4366004611af5565b6001600160a01b03166000908152600360208181526040928390208351608081018552815480825260018301549382018490526002830154958201869052919093015460ff16151560609093018390529390929190565b6040805194855260208501939093529183015215156060820152608001610228565b34801561042957600080fd5b506000546001600160a01b03165b6040516001600160a01b039091168152602001610228565b34801561045b57600080fd5b5061046f61046a366004611af5565b610f50565b604051610228989796959493929190611c35565b34801561048f57600080fd5b5060055461021e565b3480156104a457600080fd5b506104376104b3366004611b17565b6110fa565b3480156104c457600080fd5b5061046f6104d3366004611af5565b611124565b3480156104e457600080fd5b506101e66104f3366004611af5565b6111f5565b34801561050457600080fd5b506101e6610513366004611af5565b61128b565b34801561052457600080fd5b50610437610533366004611b17565b6112f5565b34801561054457600080fd5b50610558610553366004611af5565b611305565b60408051938452602084019290925290820152606001610228565b34801561057f57600080fd5b5061043761058e366004611b17565b611395565b34801561059f57600080fd5b506101e66105ae366004611a69565b6113a5565b6101e661151f565b3480156105c757600080fd5b506101e66105d6366004611af5565b6116f1565b3480156105e757600080fd5b5060075461021e565b3480156105fc57600080fd5b506101e661060b366004611af5565b6117f1565b34801561061c57600080fd5b506101e661062b366004611c8c565b61182c565b34801561063c57600080fd5b506103fb61064b366004611af5565b600360208190526000918252604090912080546001820154600283015492909301549092919060ff1684565b3360009081526002602052604090206005015460ff166106b25760405162461bcd60e51b81526004016106a990611cb6565b60405180910390fd5b60008151116106f85760405162461bcd60e51b815260206004820152601260248201527112541194c81a185cda081c995c5d5a5c995960721b60448201526064016106a9565b3360009081526002602052604090206107118282611d6c565b50336001600160a01b03167fdcb94c0b2c025b0736b4b62b1c595f2ca7ad4c711eada6026d477e87de9cca08824260405161074d929190611e2c565b60405180910390a250565b61076061191f565b6001600160a01b038316600090815260026020526040902060010154610100900460ff166107c25760405162461bcd60e51b815260206004820152600f60248201526e2737ba1030903232bb32b637b832b960891b60448201526064016106a9565b6001600160a01b038316600090815260046020526040812060010180548492906107ed908490611e64565b90915550508015801590610802575060058111155b15610864576001600160a01b03831660009081526004602052604081206002018054839290610832908490611e64565b90915550506001600160a01b038316600090815260046020526040812060030180549161085e83611e7d565b91905055505b6001600160a01b03831660008181526004602052604090819020805460019091015491517fb0d642f6e2dc003a1fc941934f5c8a804dea0e7b434ac3b84efa1349e6d6913f926108bb928252602082015260400190565b60405180910390a2505050565b3360009081526002602052604090206005015460ff166108fa5760405162461bcd60e51b81526004016106a990611cb6565b61090261194c565b3360009081526002602052604090206001015462010000900460ff1661093a5760405162461bcd60e51b81526004016106a990611e96565b336000908152600360205260409020548111156109995760405162461bcd60e51b815260206004820152601b60248201527f496e73756666696369656e74207374616b65642062616c616e6365000000000060448201526064016106a9565b33600090815260036020526040812080548392906109b8908490611ebf565b90915550506008543360009081526003602052604090205410156109f25733600090815260036020819052604090912001805460ff191690555b604051600090339083908381818185875af1925050503d8060008114610a34576040519150601f19603f3d011682016040523d82523d6000602084013e610a39565b606091505b5050905080610a7c5760405162461bcd60e51b815260206004820152600f60248201526e151c985b9cd9995c8819985a5b1959608a1b60448201526064016106a9565b6040805183815242602082015233917f04fba62a80e1849b9aee6f029587f10dc735742856c310f041883b34f4107ab9910160405180910390a250610ac060018055565b50565b610acb61191f565b6001600160a01b03821660009081526002602052604090206001015462010000900460ff16610b0c5760405162461bcd60e51b81526004016106a990611e96565b6001600160a01b0382166000908152600360205260408120600101805491610b3383611e7d565b91905055508015610b6b576001600160a01b0382166000908152600360205260408120600201805491610b6583611e7d565b91905055505b5050565b610b7761191f565b600855565b610b8461194c565b3360009081526002602052604090206005015460ff1615610be75760405162461bcd60e51b815260206004820152601760248201527f5573657220616c7265616479207265676973746572656400000000000000000060448201526064016106a9565b6000825111610c2d5760405162461bcd60e51b815260206004820152601260248201527112541194c81a185cda081c995c5d5a5c995960721b60448201526064016106a9565b60006001826002811115610c4357610c43611bfd565b14905060006002836002811115610c5c57610c5c611bfd565b149050604051806101000160405280858152602001846002811115610c8357610c83611bfd565b81528315156020808301919091528315156040808401919091524260608401526101f46080840152600060a08401819052600160c0909401939093523383526002909152902081518190610cd79082611d6c565b50602082015160018083018054909160ff1990911690836002811115610cff57610cff611bfd565b021790555060408201516001808301805460608601511515620100000262ff000019941515610100029490941662ffff001990911617929092179091556080830151600283015560a0830151600383015560c0830151600483015560e0909201516005918201805491151560ff19909216919091179055805491820181556000527f036b6384b5eca791c62761152d0c79bb0604c104a5fb6f4eb0703f3154bb3db00180546001600160a01b031916331790558115610e4a5760408051608081018252600080825260208083018281528385018381526060850184815233808652600490945295842094518555905160018086019190915590516002850155935160039093019290925560078054938401815590527fa66cc928b5edb82af9bd49922954155ab7b0942694bea4ce44661d9a8736c68890910180546001600160a01b03191690911790555b8015610eec576040805160808101825260008082526020808301828152838501838152606085018481523380865260039485905296852095518655915160018087019190915590516002860155905193909101805460ff19169315159390931790925560068054928301815590527ff652222313e28459528d920b65115c16c04f3efc82aaedc97be59f3f377c0d3f0180546001600160a01b03191690911790555b336001600160a01b03167f726667a5f20e9b31dc33e05c22e9c75635a2b28353c1e1758ef024205927f702848642604051610f2993929190611ed2565b60405180910390a25050610b6b60018055565b610f4461191f565b610f4e6000611976565b565b6060600080600080600080600080600260008b6001600160a01b03166001600160a01b0316815260200190815260200160002060405180610100016040529081600082018054610f9f90611ce3565b80601f0160208091040260200160405190810160405280929190818152602001828054610fcb90611ce3565b80156110185780601f10610fed57610100808354040283529160200191611018565b820191906000526020600020905b815481529060010190602001808311610ffb57829003601f168201915b5050509183525050600182015460209091019060ff16600281111561103f5761103f611bfd565b600281111561105057611050611bfd565b8152600182015460ff610100820481161515602080850191909152620100009092048116151560408085019190915260028501546060808601919091526003860154608080870191909152600487015460a080880191909152600590970154909316151560c095860152865193870151918701519087015192870151958701519487015160e090970151939f50909d509b5099509197509550909350915050919395975091939597565b6005818154811061110a57600080fd5b6000918252602090912001546001600160a01b0316905081565b60026020526000908152604090208054819061113f90611ce3565b80601f016020809104026020016040519081016040528092919081815260200182805461116b90611ce3565b80156111b85780601f1061118d576101008083540402835291602001916111b8565b820191906000526020600020905b81548152906001019060200180831161119b57829003601f168201915b505050506001830154600284015460038501546004860154600590960154949560ff80851696610100860482169650620100009095048116941688565b6111fd61191f565b6001600160a01b038116600090815260026020526040902060010154610100900460ff1661125f5760405162461bcd60e51b815260206004820152600f60248201526e2737ba1030903232bb32b637b832b960891b60448201526064016106a9565b6001600160a01b038116600090815260046020526040812080549161128383611e7d565b919050555050565b61129361191f565b6001600160a01b03811660009081526002602052604090206005015460ff166112ce5760405162461bcd60e51b81526004016106a990611cb6565b6001600160a01b038116600090815260026020526040812060040180549161128383611e7d565b6006818154811061110a57600080fd5b6001600160a01b0381166000908152600460209081526040808320815160808101835281548152600182015493810193909352600281015491830191909152600301546060820181905282918291829061136057600061137f565b60608201516040830151611375906064611f02565b61137f9190611f19565b8251602090930151929792965094509092505050565b6007818154811061110a57600080fd5b3360009081526002602052604090206005015460ff166113d75760405162461bcd60e51b81526004016106a990611cb6565b33600090815260026020526040902060010154610100900460ff16156114355760405162461bcd60e51b815260206004820152601360248201527220b63932b0b23c9030903232bb32b637b832b960691b60448201526064016106a9565b33600090815260026020526040902060018101805461ff00191661010017905561145f8282611d6c565b5060408051608081018252600080825260208083018281528385018381526060850184815233808652600490945286852095518655915160018087019190915590516002860155905160039094019390935560078054808501825592527fa66cc928b5edb82af9bd49922954155ab7b0942694bea4ce44661d9a8736c68890910180546001600160a01b0319168217905591517f477d167f7abf078b52be840daad8312959ac896dc1bd3efdb0c678c8320e5afa9161074d914290611f3b565b3360009081526002602052604090206005015460ff166115515760405162461bcd60e51b81526004016106a990611cb6565b61155961194c565b6008543410156115ab5760405162461bcd60e51b815260206004820152601960248201527f496e73756666696369656e74207374616b6520616d6f756e740000000000000060448201526064016106a9565b3360009081526002602052604090206001015462010000900460ff16611689573360008181526002602081815260408084206001908101805462ff0000191662010000179055815160808101835234815280840186815281840187815260608301888152898952600396879052948820925183559051828401555194810194909455905192909101805492151560ff19909316929092179091556006805491820181559091527ff652222313e28459528d920b65115c16c04f3efc82aaedc97be59f3f377c0d3f0180546001600160a01b03191690911790556116ae565b33600090815260036020526040812080543492906116a8908490611e64565b90915550505b6040805134815242602082015233917f7df7881b496facd9ed493d6f1b0fc5092ad3a605083889c92e64ef36602dbb6a910160405180910390a2610f4e60018055565b6116f961191f565b6001600160a01b03811660009081526002602052604090206001015462010000900460ff1661173a5760405162461bcd60e51b81526004016106a990611e96565b6008546001600160a01b03821660009081526003602052604090205410156117995760405162461bcd60e51b8152602060048201526012602482015271496e73756666696369656e74207374616b6560701b60448201526064016106a9565b6001600160a01b03811660008181526003602081905260409182902001805460ff19166001179055517fba3f63ea8badf02ca8967cad01ce8942d4f2281105cc3f3a38c02dd441f44b229061074d9042815260200190565b6117f961191f565b6001600160a01b03811661182357604051631e4fbdf760e01b8152600060048201526024016106a9565b610ac081611976565b61183461191f565b6001600160a01b03821660009081526002602052604090206005015460ff1661186f5760405162461bcd60e51b81526004016106a990611cb6565b6103e88111156118ba5760405162461bcd60e51b8152602060048201526016602482015275052657075746174696f6e206d617820697320313030360541b60448201526064016106a9565b6001600160a01b03821660008181526002602052604090819020600301839055517f5b88a2e3fc1a53234357ab78c104df11c33ccfa79886793654565ad70b8afb6e906119139084904290918252602082015260400190565b60405180910390a25050565b6000546001600160a01b03163314610f4e5760405163118cdaa760e01b81523360048201526024016106a9565b60026001540361196f57604051633ee5aeb560e01b815260040160405180910390fd5b6002600155565b600080546001600160a01b038381166001600160a01b0319831681178455604051919092169283917f8be0079c531659141344cd1fd0a4f28419497f9722a3daafe3b4186f6b6457e09190a35050565b634e487b7160e01b600052604160045260246000fd5b600082601f8301126119ed57600080fd5b813567ffffffffffffffff80821115611a0857611a086119c6565b604051601f8301601f19908116603f01168101908282118183101715611a3057611a306119c6565b81604052838152866020858801011115611a4957600080fd5b836020870160208301376000602085830101528094505050505092915050565b600060208284031215611a7b57600080fd5b813567ffffffffffffffff811115611a9257600080fd5b611a9e848285016119dc565b949350505050565b80356001600160a01b0381168114611abd57600080fd5b919050565b600080600060608486031215611ad757600080fd5b611ae084611aa6565b95602085013595506040909401359392505050565b600060208284031215611b0757600080fd5b611b1082611aa6565b9392505050565b600060208284031215611b2957600080fd5b5035919050565b60008060408385031215611b4357600080fd5b611b4c83611aa6565b915060208301358015158114611b6157600080fd5b809150509250929050565b60008060408385031215611b7f57600080fd5b823567ffffffffffffffff811115611b9657600080fd5b611ba2858286016119dc565b925050602083013560038110611b6157600080fd5b6000815180845260005b81811015611bdd57602081850181015186830182015201611bc1565b506000602082860101526020601f19601f83011685010191505092915050565b634e487b7160e01b600052602160045260246000fd5b60038110611c3157634e487b7160e01b600052602160045260246000fd5b9052565b6000610100808352611c498184018c611bb7565b915050611c59602083018a611c13565b96151560408201529415156060860152608085019390935260a084019190915260c0830152151560e09091015292915050565b60008060408385031215611c9f57600080fd5b611ca883611aa6565b946020939093013593505050565b602080825260139082015272155cd95c881b9bdd081c9959da5cdd195c9959606a1b604082015260600190565b600181811c90821680611cf757607f821691505b602082108103611d1757634e487b7160e01b600052602260045260246000fd5b50919050565b601f821115611d6757600081815260208120601f850160051c81016020861015611d445750805b601f850160051c820191505b81811015611d6357828155600101611d50565b5050505b505050565b815167ffffffffffffffff811115611d8657611d866119c6565b611d9a81611d948454611ce3565b84611d1d565b602080601f831160018114611dcf5760008415611db75750858301515b600019600386901b1c1916600185901b178555611d63565b600085815260208120601f198616915b82811015611dfe57888601518255948401946001909101908401611ddf565b5085821015611e1c5787850151600019600388901b60f8161c191681555b5050505050600190811b01905550565b604081526000611e3f6040830185611bb7565b90508260208301529392505050565b634e487b7160e01b600052601160045260246000fd5b80820180821115611e7757611e77611e4e565b92915050565b600060018201611e8f57611e8f611e4e565b5060010190565b6020808252600f908201526e2737ba1030903b30b634b230ba37b960891b604082015260600190565b81810381811115611e7757611e77611e4e565b611edc8185611c13565b606060208201526000611ef26060830185611bb7565b9050826040830152949350505050565b8082028115828204841417611e7757611e77611e4e565b600082611f3657634e487b7160e01b600052601260045260246000fd5b500490565b60408101611f498285611c13565b826020830152939250505056fea26469706673582212207f12880749c22ca5181ff9d4d3937f8e2b206722eb055ecf1178a1b47403b14664736f6c63430008140033",
  "linkReferences": {},
  "deployedLinkReferences": {}
}