{
  "_format": "hh-sol-artifact-1",
  "contractName": "Marketplace",
  "sourceName": "contracts/Marketplace.sol",
  "abi": [
    {
      "inputs": [
        {
          "internalType": "address",
          "name": "_modelRegistry",
          "type": "address"
        }
      ],
      "stateMutability": "nonpayable",
      "type": "constructor"
    },
    {
      "inputs": [],
      "name": "EnforcedPause",
      "type": "error"
    },
    {
      "inputs": [],
      "name": "ExpectedPause",
      "type": "error"
    },
    {
      "inputs": [
        {
          "internalType": "address",
          "name": "owner",
          "type": "address"
        }
      ],
      "name": "OwnableInvalidOwner",
      "type": "error"
    },
    {
      "inputs": [
        {
          "internalType": "address",
          "name": "account",
          "type": "address"
        }
      ],
      "name": "OwnableUnauthorizedAccount",
      "type": "error"
    },
    {
      "inputs": [],
      "name": "ReentrancyGuardReentrantCall",
      "type": "error"
    },
    {
      "anonymous": false,
      "inputs": [
        {
          "indexed": true,
          "internalType": "address",
          "name": "seller",
          "type": "address"
        },
        {
          "indexed": false,
          "internalType": "uint256",
          "name": "amount",
          "type": "uint256"
        }
      ],
      "name": "EarningsWithdrawn",
      "type": "event"
    },
    {
      "anonymous": false,
      "inputs": [
        {
          "indexed": true,
          "internalType": "uint256",
          "name": "modelId",
          "type": "uint256"
        },
        {
          "indexed": false,
          "internalType": "uint256",
          "name": "newPrice",
          "type": "uint256"
        }
      ],
      "name": "ListingUpdated",
      "type": "event"
    },
    {
      "anonymous": false,
      "inputs": [
        {
          "indexed": true,
          "internalType": "uint256",
          "name": "modelId",
          "type": "uint256"
        }
      ],
      "name": "ModelDelisted",
      "type": "event"
    },
    {
      "anonymous": false,
      "inputs": [
        {
          "indexed": true,
          "internalType": "uint256",
          "name": "modelId",
          "type": "uint256"
        },
        {
          "indexed": true,
          "internalType": "address",
          "name": "seller",
          "type": "address"
        },
        {
          "indexed": false,
          "internalType": "uint256",
          "name": "basePrice",
          "type": "uint256"
        }
      ],
      "name": "ModelListed",
      "type": "event"
    },
    {
      "anonymous": false,
      "inputs": [
        {
          "indexed": true,
          "internalType": "uint256",
          "name": "modelId",
          "type": "uint256"
        },
        {
          "indexed": true,
          "internalType": "address",
          "name": "buyer",
          "type": "address"
        },
        {
          "indexed": false,
          "internalType": "uint256",
          "name": "price",
          "type": "uint256"
        },
        {
          "indexed": false,
          "internalType": "enum Marketplace.LicenseType",
          "name": "licenseType",
          "type": "uint8"
        }
      ],
      "name": "ModelPurchased",
      "type": "event"
    },
    {
      "anonymous": false,
      "inputs": [
        {
          "indexed": true,
          "internalType": "address",
          "name": "previousOwner",
          "type": "address"
        },
        {
          "indexed": true,
          "internalType": "address",
          "name": "newOwner",
          "type": "address"
        }
      ],
      "name": "OwnershipTransferred",
      "type": "event"
    },
    {
      "anonymous": false,
      "inputs": [
        {
          "indexed": false,
          "internalType": "address",
          "name": "account",
          "type": "address"
        }
      ],
      "name": "Paused",
      "type": "event"
    },
    {
      "anonymous": false,
      "inputs": [
        {
          "indexed": false,
          "internalType": "uint256",
          "name": "newFee",
          "type": "uint256"
        }
      ],
      "name": "PlatformFeeUpdated",
      "type": "event"
    },
    {
      "anonymous": false,
      "inputs": [
        {
          "indexed": false,
          "internalType": "address",
          "name": "account",
          "type": "address"
        }
      ],
      "name": "Unpaused",
      "type": "event"
    },
    {
      "inputs": [],
      "name": "FEE_DENOMINATOR",
      "outputs": [
        {
          "internalType": "uint256",
          "name": "",
          "type": "uint256"
        }
      ],
      "stateMutability": "view",
      "type": "function"
    },
    {
      "inputs": [
        {
          "internalType": "uint256",
          "name": "modelId",
          "type": "uint256"
        },
        {
          "internalType": "enum Marketplace.LicenseType",
          "name": "licenseType",
          "type": "uint8"
        }
      ],
      "name": "calculatePrice",
      "outputs": [
        {
          "internalType": "uint256",
          "name": "",
          "type": "uint256"
        }
      ],
      "stateMutability": "view",
      "type": "function"
    },
    {
      "inputs": [
        {
          "internalType": "uint256",
          "name": "modelId",
          "type": "uint256"
        },
        {
          "internalType": "address",
          "name": "user",
          "type": "address"
        }
      ],
      "name": "checkAccess",
      "outputs": [
        {
          "internalType": "bool",
          "name": "",
          "type": "bool"
        }
      ],
      "stateMutability": "view",
      "type": "function"
    },
    {
      "inputs": [
        {
          "internalType": "uint256",
          "name": "modelId",
          "type": "uint256"
        }
      ],
      "name": "delistModel",
      "outputs": [],
      "stateMutability": "nonpayable",
      "type": "function"
    },
    {
      "inputs": [
        {
          "internalType": "uint256",
          "name": "modelId",
          "type": "uint256"
        }
      ],
      "name": "getListing",
      "outputs": [
        {
          "components": [
            {
              "internalType": "uint256",
              "name": "modelId",
              "type": "uint256"
            },
            {
              "internalType": "address",
              "name": "seller",
              "type": "address"
            },
            {
              "internalType": "uint256",
              "name": "basePrice",
              "type": "uint256"
            },
            {
              "internalType": "uint256",
              "name": "commercialMultiplier",
              "type": "uint256"
            },
            {
              "internalType": "uint256",
              "name": "enterpriseMultiplier",
              "type": "uint256"
            },
            {
              "internalType": "bool",
              "name": "isActive",
              "type": "bool"
            },
            {
              "internalType": "uint256",
              "name": "totalSales",
              "type": "uint256"
            },
            {
              "internalType": "uint256",
              "name": "totalRevenue",
              "type": "uint256"
            }
          ],
          "internalType": "struct Marketplace.Listing",
          "name": "",
          "type": "tuple"
        }
      ],
      "stateMutability": "view",
      "type": "function"
    },
    {
      "inputs": [
        {
          "internalType": "address",
          "name": "user",
          "type": "address"
        }
      ],
      "name": "getUserPurchases",
      "outputs": [
        {
          "components": [
            {
              "internalType": "uint256",
              "name": "modelId",
              "type": "uint256"
            },
            {
              "internalType": "address",
              "name": "buyer",
              "type": "address"
            },
            {
              "internalType": "uint256",
              "name": "price",
              "type": "uint256"
            },
            {
              "internalType": "enum Marketplace.LicenseType",
              "name": "licenseType",
              "type": "uint8"
            },
            {
              "internalType": "uint256",
              "name": "purchasedAt",
              "type": "uint256"
            },
            {
              "internalType": "bool",
              "name": "isActive",
              "type": "bool"
            }
          ],
          "internalType": "struct Marketplace.Purchase[]",
          "name": "",
          "type": "tuple[]"
        }
      ],
      "stateMutability": "view",
      "type": "function"
    },
    {
      "inputs": [
        {
          "internalType": "uint256",
          "name": "",
          "type": "uint256"
        },
        {
          "internalType": "address",
          "name": "",
          "type": "address"
        }
      ],
      "name": "hasAccess",
      "outputs": [
        {
          "internalType": "bool",
          "name": "",
          "type": "bool"
        }
      ],
      "stateMutability": "view",
      "type": "function"
    },
    {
      "inputs": [
        {
          "internalType": "uint256",
          "name": "modelId",
          "type": "uint256"
        },
        {
          "internalType": "uint256",
          "name": "basePrice",
          "type": "uint256"
        },
        {
          "internalType": "uint256",
          "name": "commercialMultiplier",
          "type": "uint256"
        },
        {
          "internalType": "uint256",
          "name": "enterpriseMultiplier",
          "type": "uint256"
        }
      ],
      "name": "listModel",
      "outputs": [],
      "stateMutability": "nonpayable",
      "type": "function"
    },
    {
      "inputs": [
        {
          "internalType": "uint256",
          "name": "",
          "type": "uint256"
        }
      ],
      "name": "listings",
      "outputs": [
        {
          "internalType": "uint256",
          "name": "modelId",
          "type": "uint256"
        },
        {
          "internalType": "address",
          "name": "seller",
          "type": "address"
        },
        {
          "internalType": "uint256",
          "name": "basePrice",
          "type": "uint256"
        },
        {
          "internalType": "uint256",
          "name": "commercialMultiplier",
          "type": "uint256"
        },
        {
          "internalType": "uint256",
          "name": "enterpriseMultiplier",
          "type": "uint256"
        },
        {
          "internalType": "bool",
          "name": "isActive",
          "type": "bool"
        },
        {
          "internalType": "uint256",
          "name": "totalSales",
          "type": "uint256"
        },
        {
          "internalType": "uint256",
          "name": "totalRevenue",
          "type": "uint256"
        }
      ],
      "stateMutability": "view",
      "type": "function"
    },
    {
      "inputs": [],
      "name": "minPrice",
      "outputs": [
        {
          "internalType": "uint256",
          "name": "",
          "type": "uint256"
        }
      ],
      "stateMutability": "view",
      "type": "function"
    },
    {
      "inputs": [],
      "name": "modelRegistry",
      "outputs": [
        {
          "internalType": "contract ModelRegistry",
          "name": "",
          "type": "address"
        }
      ],
      "stateMutability": "view",
      "type": "function"
    },
    {
      "inputs": [],
      "name": "owner",
      "outputs": [
        {
          "internalType": "address",
          "name": "",
          "type": "address"
        }
      ],
      "stateMutability": "view",
      "type": "function"
    },
    {
      "inputs": [],
      "name": "pause",
      "outputs": [],
      "stateMutability": "nonpayable",
      "type": "function"
    },
    {
      "inputs": [],
      "name": "paused",
      "outputs": [
        {
          "internalType": "bool",
          "name": "",
          "type": "bool"
        }
      ],
      "stateMutability": "view",
      "type": "function"
    },
    {
      "inputs": [
        {
          "internalType": "address",
          "name": "",
          "type": "address"
        }
      ],
      "name": "pendingWithdrawals",
      "outputs": [
        {
          "internalType": "uint256",
          "name": "",
          "type": "uint256"
        }
      ],
      "stateMutability": "view",
      "type": "function"
    },
    {
      "inputs": [],
      "name": "platformFeePercent",
      "outputs": [
        {
          "internalType": "uint256",
          "name": "",
          "type": "uint256"
        }
      ],
      "stateMutability": "view",
      "type": "function"
    },
    {
      "inputs": [
        {
          "internalType": "uint256",
          "name": "modelId",
          "type": "uint256"
        },
        {
          "internalType": "enum Marketplace.LicenseType",
          "name": "licenseType",
          "type": "uint8"
        }
      ],
      "name": "purchaseModel",
      "outputs": [],
      "stateMutability": "payable",
      "type": "function"
    },
    {
      "inputs": [],
      "name": "renounceOwnership",
      "outputs": [],
      "stateMutability": "nonpayable",
      "type": "function"
    },
    {
      "inputs": [
        {
          "internalType": "address",
          "name": "",
          "type": "address"
        }
      ],
      "name": "sellerEarnings",
      "outputs": [
        {
          "internalType": "uint256",
          "name": "",
          "type": "uint256"
        }
      ],
      "stateMutability": "view",
      "type": "function"
    },
    {
      "inputs": [
        {
          "internalType": "uint256",
          "name": "newMinPrice",
          "type": "uint256"
        }
      ],
      "name": "setMinPrice",
      "outputs": [],
      "stateMutability": "nonpayable",
      "type": "function"
    },
    {
      "inputs": [
        {
          "internalType": "uint256",
          "name": "newFee",
          "type": "uint256"
        }
      ],
      "name": "setPlatformFee",
      "outputs": [],
      "stateMutability": "nonpayable",
      "type": "function"
    },
    {
      "inputs": [
        {
          "internalType": "address",
          "name": "newOwner",
          "type": "address"
        }
      ],
      "name": "transferOwnership",
      "outputs": [],
      "stateMutability": "nonpayable",
      "type": "function"
    },
    {
      "inputs": [],
      "name": "unpause",
      "outputs": [],
      "stateMutability": "nonpayable",
      "type": "function"
    },
    {
      "inputs": [
        {
          "internalType": "uint256",
          "name": "modelId",
          "type": "uint256"
        },
        {
          "internalType": "uint256",
          "name": "newBasePrice",
          "type": "uint256"
        },
        {
          "internalType": "uint256",
          "name": "commercialMultiplier",
          "type": "uint256"
        },
        {
          "internalType": "uint256",
          "name": "enterpriseMultiplier",
          "type": "uint256"
        }
      ],
      "name": "updateListing",
      "outputs": [],
      "stateMutability": "nonpayable",
      "type": "function"
    },
    {
      "inputs": [
        {
          "internalType": "address",
          "name": "",
          "type": "address"
        },
        {
          "internalType": "uint256",
          "name": "",
          "type": "uint256"
        }
      ],
      "name": "userPurchases",
      "outputs": [
        {
          "internalType": "uint256",
          "name": "modelId",
          "type": "uint256"
        },
        {
          "internalType": "address",
          "name": "buyer",
          "type": "address"
        },
        {
          "internalType": "uint256",
          "name": "price",
          "type": "uint256"
        },
        {
          "internalType": "enum Marketplace.LicenseType",
          "name": "licenseType",
          "type": "uint8"
        },
        {
          "internalType": "uint256",
          "name": "purchasedAt",
          "type": "uint256"
        },
        {
          "internalType": "bool",
          "name": "isActive",
          "type": "bool"
        }
      ],
      "stateMutability": "view",
      "type": "function"
    },
    {
      "inputs": [],
      "name": "withdrawEarnings",
      "outputs": [],
      "stateMutability": "nonpayable",
      "type": "function"
    },
    {
      "inputs": [],
      "name": "withdrawPlatformFees",
      "outputs": [],
      "stateMutability": "nonpayable",
      "type": "function"
    }
  ],
  "bytecode": "0x608060405260fa60035566038d7ea4c6800060045534801561002057600080fd5b5060405162001acb38038062001acb833981016040819052610041916100f0565b338061006757604051631e4fbdf760e01b81526000600482015260240160405180910390fd5b610070816100a0565b5060018055600280546001600160a01b0390921661010002610100600160a81b0319909216919091179055610120565b600080546001600160a01b038381166001600160a01b0319831681178455604051919092169283917f8be0079c531659141344cd1fd0a4f28419497f9722a3daafe3b4186f6b6457e09190a35050565b60006020828403121561010257600080fd5b81516001600160a01b038116811461011957600080fd5b9392505050565b61199b80620001306000396000f3fe60806040526004361061019c5760003560e01c80638ce1b56e116100ec578063d0b7830b1161008a578063de74e57b11610064578063de74e57b1461050f578063e45be8eb146105c1578063f2fde38b146105d7578063f3f43703146105f757600080fd5b8063d0b7830b146104c4578063d13c8703146104d9578063d73792a9146104f957600080fd5b8063c6e5d8f6116100c6578063c6e5d8f61461040a578063ce972e3314610437578063ced1419814610457578063cf2c03341461049257600080fd5b80638ce1b56e146103b75780638da5cb5b146103d7578063b73c6ce9146103f557600080fd5b80633f4ba83a11610159578063715018a611610133578063715018a61461033c5780638456cb59146103515780638b012358146103665780638c639a85146103a157600080fd5b80633f4ba83a146102e35780635c975abb146102f85780635ea8cd121461031c57600080fd5b80630589da1f146101a1578063104272fd146101c3578063107a274a146101d657806312e8e2c3146102665780631712ab19146102865780632ba36f78146102a6575b600080fd5b3480156101ad57600080fd5b506101c16101bc366004611695565b610624565b005b6101c16101d13660046116c7565b61090a565b3480156101e257600080fd5b506101f66101f13660046116fb565b610cf3565b60405161025d9190815181526020808301516001600160a01b03169082015260408083015190820152606080830151908201526080808301519082015260a08083015115159082015260c0808301519082015260e091820151918101919091526101000190565b60405180910390f35b34801561027257600080fd5b506101c16102813660046116fb565b610dc1565b34801561029257600080fd5b506101c16102a1366004611695565b610e45565b3480156102b257600080fd5b506002546102cb9061010090046001600160a01b031681565b6040516001600160a01b03909116815260200161025d565b3480156102ef57600080fd5b506101c1610f3a565b34801561030457600080fd5b5060025460ff165b604051901515815260200161025d565b34801561032857600080fd5b506101c16103373660046116fb565b610f4c565b34801561034857600080fd5b506101c1610f59565b34801561035d57600080fd5b506101c1610f6b565b34801561037257600080fd5b50610393610381366004611729565b60086020526000908152604090205481565b60405190815260200161025d565b3480156103ad57600080fd5b5061039360035481565b3480156103c357600080fd5b506101c16103d23660046116fb565b610f7b565b3480156103e357600080fd5b506000546001600160a01b03166102cb565b34801561040157600080fd5b506101c1611035565b34801561041657600080fd5b5061042a610425366004611729565b611115565b60405161025d9190611785565b34801561044357600080fd5b506103936104523660046116c7565b611206565b34801561046357600080fd5b5061030c610472366004611812565b600760209081526000928352604080842090915290825290205460ff1681565b34801561049e57600080fd5b506104b26104ad366004611837565b61133f565b60405161025d96959493929190611863565b3480156104d057600080fd5b506101c16113a4565b3480156104e557600080fd5b5061030c6104f4366004611812565b611420565b34801561050557600080fd5b5061039361271081565b34801561051b57600080fd5b5061057c61052a3660046116fb565b60056020819052600091825260409091208054600182015460028301546003840154600485015495850154600686015460079096015494966001600160a01b0390941695929491939260ff9091169188565b604080519889526001600160a01b0390971660208901529587019490945260608601929092526080850152151560a084015260c083015260e08201526101000161025d565b3480156105cd57600080fd5b5061039360045481565b3480156105e357600080fd5b506101c16105f2366004611729565b6114da565b34801561060357600080fd5b50610393610612366004611729565b60096020526000908152604090205481565b6002546040516331a9108f60e11b815260048101869052339161010090046001600160a01b031690636352211e90602401602060405180830381865afa158015610672573d6000803e3d6000fd5b505050506040513d601f19601f8201168201806040525081019061069691906118a6565b6001600160a01b0316146106e75760405162461bcd60e51b81526020600482015260136024820152722737ba103a34329036b7b232b61037bbb732b960691b60448201526064015b60405180910390fd5b600454831015806106f6575082155b6107385760405162461bcd60e51b815260206004820152601360248201527250726963652062656c6f77206d696e696d756d60681b60448201526064016106de565b60648210156107895760405162461bcd60e51b815260206004820152601d60248201527f436f6d6d65726369616c206d756c7469706c69657220746f6f206c6f7700000060448201526064016106de565b818110156107d95760405162461bcd60e51b815260206004820181905260248201527f456e7465727072697365206d757374206265203e3d20636f6d6d65726369616c60448201526064016106de565b604051806101000160405280858152602001336001600160a01b03168152602001848152602001838152602001828152602001600115158152602001600081526020016000815250600560008681526020019081526020016000206000820151816000015560208201518160010160006101000a8154816001600160a01b0302191690836001600160a01b0316021790555060408201518160020155606082015181600301556080820151816004015560a08201518160050160006101000a81548160ff02191690831515021790555060c0820151816006015560e08201518160070155905050336001600160a01b0316847f9bd8ea027140589a00b923b981d55ddbfbb8a7c266dcbc6fd9e2eabdbe2ce0cb856040516108fc91815260200190565b60405180910390a350505050565b610912611518565b61091a611542565b60008281526005602081905260409091209081015460ff166109715760405162461bcd60e51b815260206004820152601060248201526f135bd9195b081b9bdd081b1a5cdd195960821b60448201526064016106de565b600083815260076020908152604080832033845290915290205460ff16156109cf5760405162461bcd60e51b8152602060048201526011602482015270105b1c9958591e481c1d5c98da185cd959607a1b60448201526064016106de565b60006109db8484611206565b905080341015610a245760405162461bcd60e51b8152602060048201526014602482015273125b9cdd59999a58da595b9d081c185e5b595b9d60621b60448201526064016106de565b600061271060035483610a3791906118d9565b610a4191906118f0565b90506000610a4f8284611912565b60008781526007602090815260408083203384529091528120805460ff1916600117905560068601805492935090610a8683611925565b919050555082846007016000828254610a9f919061193e565b909155505033600081815260066020908152604091829020825160c0810184528a81529182019390935290810185905260608101876002811115610ae557610ae561174d565b815242602080830191909152600160409283018190528454808201865560009586529482902084516006909602019485559083015184820180546001600160a01b0319166001600160a01b039092169190911790559082015160028085019190915560608301516003850180549495949193909260ff19909216918490811115610b7157610b7161174d565b02179055506080820151600482015560a0909101516005909101805460ff191691151591909117905560018401546001600160a01b031660009081526009602052604081208054839290610bc690849061193e565b909155505060018401546001600160a01b031660009081526008602052604081208054839290610bf790849061193e565b9091555050600254604051634b51c30160e01b8152600481018890526101009091046001600160a01b031690634b51c30190602401600060405180830381600087803b158015610c4657600080fd5b505af1158015610c5a573d6000803e3d6000fd5b5050505082341115610c9e57336108fc610c748534611912565b6040518115909202916000818181858888f19350505050158015610c9c573d6000803e3d6000fd5b505b336001600160a01b0316867f0695677d9756c145a4047a98f500a71972776c8352dfefb7cfb349bf45bc673d8588604051610cda929190611951565b60405180910390a350505050610cef60018055565b5050565b610d466040518061010001604052806000815260200160006001600160a01b0316815260200160008152602001600081526020016000815260200160001515815260200160008152602001600081525090565b506000908152600560208181526040928390208351610100810185528154815260018201546001600160a01b03169281019290925260028101549382019390935260038301546060820152600483015460808201529082015460ff16151560a0820152600682015460c082015260079091015460e082015290565b610dc9611566565b6103e8811115610e0a5760405162461bcd60e51b815260206004820152600c60248201526b08ccaca40e8dede40d0d2ced60a31b60448201526064016106de565b60038190556040518181527f45610d581145924dd7090a5017e5f2b1d6f42213bb2e95707ff86846bbfcb1ca9060200160405180910390a150565b600084815260056020526040902060018101546001600160a01b03163314610ea05760405162461bcd60e51b815260206004820152600e60248201526d2737ba103a34329039b2b63632b960911b60448201526064016106de565b600581015460ff16610ee95760405162461bcd60e51b81526020600482015260126024820152714c697374696e67206e6f742061637469766560701b60448201526064016106de565b60028101849055600381018390556004810182905560405184815285907f66bcde9f7aec9b81719a4fdec54cbafbf6c834d1f2f989d9cd2134dab8d0c0de9060200160405180910390a25050505050565b610f42611566565b610f4a611593565b565b610f54611566565b600455565b610f61611566565b610f4a60006115e5565b610f73611566565b610f4a611635565b600081815260056020526040902060018101546001600160a01b0316331480610fbd575033610fb26000546001600160a01b031690565b6001600160a01b0316145b610ffa5760405162461bcd60e51b815260206004820152600e60248201526d139bdd08185d5d1a1bdc9a5e995960921b60448201526064016106de565b60058101805460ff1916905560405182907f903f8f64f967c32e639f06e92d17cbe895e3a42546499b380824f858d241e8eb90600090a25050565b61103d611518565b336000908152600960205260409020548061109a5760405162461bcd60e51b815260206004820152601760248201527f4e6f206561726e696e677320746f20776974686472617700000000000000000060448201526064016106de565b336000818152600960205260408082208290555183156108fc0291849190818181858888f193505050501580156110d5573d6000803e3d6000fd5b5060405181815233907f48dc35af7b45e2a81fffad55f6e2fafacdb1d3d0d50d24ebdc16324f5ba757f19060200160405180910390a250610f4a60018055565b6001600160a01b0381166000908152600660209081526040808320805482518185028101850190935280835260609492939192909184015b828210156111fb5760008481526020908190206040805160c081018252600686029092018054835260018101546001600160a01b031693830193909352600280840154918301919091526003830154919291606084019160ff909116908111156111b9576111b961174d565b60028111156111ca576111ca61174d565b8152600482015460208083019190915260059092015460ff161515604090910152908252600192909201910161114d565b505050509050919050565b60008281526005602081815260408084208151610100810183528154815260018201546001600160a01b03169381019390935260028101549183019190915260038101546060830152600481015460808301529182015460ff16151560a08201819052600683015460c083015260079092015460e0820152906112be5760405162461bcd60e51b815260206004820152601060248201526f135bd9195b081b9bdd081b1a5cdd195960821b60448201526064016106de565b60008360028111156112d2576112d261174d565b036112e257604001519050611339565b60018360028111156112f6576112f661174d565b036113235760648160600151826040015161131191906118d9565b61131b91906118f0565b915050611339565b60648160800151826040015161131191906118d9565b92915050565b6006602052816000526040600020818154811061135b57600080fd5b60009182526020909120600690910201805460018201546002830154600384015460048501546005909501549396506001600160a01b0390921694509260ff9182169290911686565b6113ac611566565b47806113e75760405162461bcd60e51b815260206004820152600a6024820152694e6f2062616c616e636560b01b60448201526064016106de565b600080546040516001600160a01b039091169183156108fc02918491818181858888f19350505050158015610cef573d6000803e3d6000fd5b6002546040516331a9108f60e11b8152600481018490526000916001600160a01b03848116926101009092041690636352211e90602401602060405180830381865afa158015611474573d6000803e3d6000fd5b505050506040513d601f19601f8201168201806040525081019061149891906118a6565b6001600160a01b0316036114ae57506001611339565b5060009182526007602090815260408084206001600160a01b0393909316845291905290205460ff1690565b6114e2611566565b6001600160a01b03811661150c57604051631e4fbdf760e01b8152600060048201526024016106de565b611515816115e5565b50565b60026001540361153b57604051633ee5aeb560e01b815260040160405180910390fd5b6002600155565b60025460ff1615610f4a5760405163d93c066560e01b815260040160405180910390fd5b6000546001600160a01b03163314610f4a5760405163118cdaa760e01b81523360048201526024016106de565b61159b611672565b6002805460ff191690557f5db9ee0a495bf2e6ff9c91a7834c1ba4fdd244a5e8aa4e537bd38aeae4b073aa335b6040516001600160a01b03909116815260200160405180910390a1565b600080546001600160a01b038381166001600160a01b0319831681178455604051919092169283917f8be0079c531659141344cd1fd0a4f28419497f9722a3daafe3b4186f6b6457e09190a35050565b61163d611542565b6002805460ff191660011790557f62e78cea01bee320cd4e420270b5ea74000d11b0c9f74754ebdbfc544b05a2586115c83390565b60025460ff16610f4a57604051638dfc202b60e01b815260040160405180910390fd5b600080600080608085870312156116ab57600080fd5b5050823594602084013594506040840135936060013592509050565b600080604083850312156116da57600080fd5b823591506020830135600381106116f057600080fd5b809150509250929050565b60006020828403121561170d57600080fd5b5035919050565b6001600160a01b038116811461151557600080fd5b60006020828403121561173b57600080fd5b813561174681611714565b9392505050565b634e487b7160e01b600052602160045260246000fd5b6003811061178157634e487b7160e01b600052602160045260246000fd5b9052565b602080825282518282018190526000919060409081850190868401855b8281101561180557815180518552868101516001600160a01b03168786015285810151868601526060808201516117db82880182611763565b50506080818101519086015260a09081015115159085015260c090930192908501906001016117a2565b5091979650505050505050565b6000806040838503121561182557600080fd5b8235915060208301356116f081611714565b6000806040838503121561184a57600080fd5b823561185581611714565b946020939093013593505050565b8681526001600160a01b03861660208201526040810185905260c0810161188d6060830186611763565b83608083015282151560a0830152979650505050505050565b6000602082840312156118b857600080fd5b815161174681611714565b634e487b7160e01b600052601160045260246000fd5b8082028115828204841417611339576113396118c3565b60008261190d57634e487b7160e01b600052601260045260246000fd5b500490565b81810381811115611339576113396118c3565b600060018201611937576119376118c3565b5060010190565b80820180821115611339576113396118c3565b82815260408101611746602083018461176356fea264697066735822122064a80457a0742f0c8e9692aecb5230aeb934e49517eb1dd7aae01e1f294da41064736f6c63430008140033",
  "linkReferences": {},
  "deployedLinkReferences": {}
}